:020000040002F8
:1060000008FE002099640200A1640200C56302003A
:10601000A5640200A7640200A96402000000000059
:10602000000000000000000000000000F963020012
:10603000AD640200000000003D640200B164020093
:1060400091850200B3640200558A0200D1860200E5
:10605000E1860200B3640200C57C0200B364020062
:10606000B3640200B3640200B3640200B3640200CC
:10607000B3640200B3640200B3640200B3640200BC
:10608000B364020009860200B3640200B364020034
:10609000B3640200B364020035870200B3640200F7
:1060A000B3640200B3640200B3640200B36402008C
:1060B000F9850200B3640200000000000000000047
:1060C000B3640200B3640200B3640200B36402006C
:1060D000B3640200B3640200B36402000000000075
:1060E00000000000000000000000000000000000B0
:1060F00000000000000000000000000000000000A0
:10610000000000000000000000000000000000008F
:10611000000000000000000000000000000000007F
:10612000000000000000000000000000000000006F
:10613000000000000000000000000000000000005F
:10614000000000000000000000000000000000004F
:10615000000000000000000000000000000000003F
:10616000000000000000000000000000000000002F
:10617000000000000000000000000000000000001F
:10618000000000000000000000000000000000000F
:1061900000000000000000000000000000000000FF
:1061A00000000000000000000000000000000000EF
:1061B00000000000000000000000000000000000DF
:1061C00000000000000000000000000000000000CF
:1061D00000000000000000000000000000000000BF
:1061E00000000000000000000000000000000000AF
:1061F000000000000000000000000000000000009F
:10620000DFF810D001F022FA00480047ED08030043
:10621000AFF3008008FE002030B4044654E8000FBD
:106220000D4644E80053002BF8D1156030BC704790
:1062300030B4044654E8000F40EA010544E8005336
:10624000002BF7D1156030BC704730B4044654E8D9
:10625000000F00EA010544E80053002BF7D1156058
:1062600030BC704730B4044654E8000F80EA0105A2
:1062700044E80053002BF7D1156030BC704730B4B0
:10628000044654E8000F00EB010544E80053002BDE
:10629000F7D1156030BC704730B4044654E8000FA5
:1062A000A0EB010544E80053002BF7D1156030BC8A
:1062B000704770B404464FF0000054E8006F0D685A
:1062C000AE4207BF44E80023012044E800630E60AB
:1062D000002B1CBF0020F0E770BC704730B40446B0
:1062E00054E8000F88422CBF451A054644E8005385
:1062F000002BF5D1156030BC7047000030B450E879
:10630000012F93B2C48923448489A34228BF1B1B55
:106310000489A34202BFBFF32F8F002007E0C3EA26
:10632000020340E80134002CE9D14FF001000A607B
:1063300030BC704750E8012FC2EA024240E8012118
:106340000029F7D1704730B450E8022F1FFAA2F3AA
:10635000C488A34202BFBFF32F8F00200DE0C48981
:1063600023448489A34228BF1B1BC2EA034340E89D
:106370000234002CE8D14FF001000A6030BC7047B5
:1063800050E8022FC2EA224240E802210029F7D158
:106390007047034653E8022FD988B2EB324F4FF0D3
:1063A000000017BF92B241EA014142EA014104E014
:1063B0005A68B2EB324F08BF012043E80212002AAC
:1063C000E8D17047094B1EF0040F1CBFEFF30980A2
:1063D0001847EFF308800649064A884201D89042E0
:1063E00002D88D464FF0000018470000697D02007A
:1063F00008FE002008EE0020264B19680868B0E867
:10640000F04F80F30988BFF36F8F4FF0000080F3E7
:1064100011887047000000000748006880F3088872
:1064200062B661B6BFF34F8FBFF36F8F4FF4F0705A
:1064300080F3118800DF000000600200EFF30980A4
:10644000BFF36F8F134B1A681EF0100F08BF20EDBB
:10645000108A20E9F04F106008B44FF0400080F33C
:106460001188BFF34F8FBFF36F8F16F0F1FA4FF023
:10647000000080F3118808BC19680868B0E8F04F84
:106480001EF0100F08BFB0EC108A80F30988BFF32C
:106490006F8F7047B02F002006488047064800479E
:1064A000FEE7FEE7FEE7FEE7FEE7FEE7FEE7FEE7C4
:1064B000FEE7FEE77D87020001620200202A04DB7E
:1064C000203A00FA02F1002070479140C2F1200307
:1064D00020FA03F3194390407047000000487047CA
:1064E00050EA030010B50446FFF7F8FF0068005DAE
:1064F00000F0010010BDA0F14101192900D82030A1
:10650000704710B5431A934209D28318881803E0E4
:1065100010F8011D03F8011D521EF9D210BD40EA0A
:1065200001039B0703D009E008C9121F08C0042A11
:10653000FAD203E011F8013B00F8013B521EF9D2F8
:1065400010BDD2B201E000F8012B491EFBD270470A
:106550000022F6E710B513460A4604461946FFF72F
:10656000F0FF204610BD30B505462A460B4612F80E
:10657000010B13F8014B08B1A042F8D01CB1002860
:1065800002D06D1CF1E7284630BD10B5044604E08A
:106590000B7800F8013B03B1491C521EF8D220468B
:1065A00010BDCAB2401E10F8011F8A4202D0002955
:1065B000F9D100207047421C10F8011B0029FBD1C3
:1065C000801A704730B504460020034600E05B1C8B
:1065D000934203D2E05CCD5C401BF8D030BD034653
:1065E00011F8012B00F8012B002AF9D11846704749
:1065F00030B505460020034600E05B1C934205D2FF
:10660000EC5CC85C201A01D1002CF6D130BD000032
:1066100000B58DB0099000920B904FF0FF300A90BA
:1066200000200C9004480690044807906A4609A888
:1066300000F024FE0DB000BD99720200B772020096
:106640000FB400B58DB010A909900B9000914FF0D8
:10665000FF300A9000200C900548069005480790EE
:106660006A4609A80F9900F009FE0DB05DF814FB09
:1066700099720200B77202002DE9FF5F1D464FF0CC
:10668000FF3BD5E9014691465F464FF00008A969F6
:106690007F1C01988847296A824688470028F6D1DE
:1066A000BAF1FF3F0CD024F4C064002E19DD60065F
:1066B00014D5BAF12B0F09D0BAF12D0F0ED103E08A
:1066C000584604B0BDE8F09F44F48064A9697F1C7B
:1066D00001988847761E8246002E02DDBAF1300FFF
:1066E00003D0B9F1000F26D032E0A969761E44F438
:1066F00000747F1C019888478246002E05DDBAF1A0
:10670000780F06D0BAF1580F03D0B9F1000F10D0AE
:106710001EE0B9F1000F02D0B9F1100F18D1A9692C
:10672000761E24F400747F1C01988847824610204E
:1067300002E0082000E00A20814609E008FB090881
:10674000A969761E44F400747F1C0198884782462C
:10675000002E05DD4946504600F021FB0028EDDA09
:10676000E96901988847A00502D46FF00100A8E705
:10677000E00725D1600613D5600502D5C8F10000F9
:1067800000E0404629680A1D2A600968220501D5F3
:10679000087015E0220701D5088011E008600FE0BD
:1067A0002868011D29600068210502D580F8008055
:1067B00006E0210702D5A0F8008001E0C0F80080C3
:1067C00038467EE72DE9FF5FD2E901A74FF00008C8
:1067D000916999461446DDF838B0464601988847D5
:1067E000054659EA0B0005D009E0A169761C01981D
:1067F00088470546216A284688470028F5D1681C45
:1068000003D05FEACA7005D015E04FF0FF3004B046
:10681000BDE8F09F2068011D2160D0F800800AE0EB
:106820005FEACA7001D108F8015BA169761C7F1E7E
:10683000019888470546002F1ADD681C18D0B9F169
:10684000000F0DD0E81705EBD060421120F01F00BB
:1068500059F822102A1A012090400142E0D107E0A5
:10686000BBF1000FDCD1216A284688470028D7D029
:10687000E16901988847BBF1000F07D1002E05DDC3
:106880005FEACA7002D1002188F80010A068B842FF
:1068900003DDBBF1000F03D017B16FF00100B6E7C5
:1068A0003046B4E72DE9F04791460F46804604464E
:1068B000002614F8015B2DB1FFF710FE0068405D63
:1068C000C007F6D12B2D02D02D2D18D0641E4A46BC
:1068D0003946204600F000FD27B13968A14201D1B8
:1068E000C7F8008071054FF002040BD54042002824
:1068F00003DD02F011FA0460A007BDE8F08746F45A
:106900008066E4E70028F8DA02F006FA04606FF027
:106910000040F2E770B5064602F0FEF9046805464D
:106920000A2200213046FFF7BDFF2C6070BD2DE923
:10693000FE4F804681EA0300C00F0C46009021F014
:10694000004123F00045B8EB0200A94105D24046C2
:10695000214690461C460B46024623F00040104359
:1069600047D0270DC7F30A00C3F30A510290401A1B
:10697000019040286BDAC3F3130040F4801B0098A9
:10698000924620B10023D2EB030A63EB0B0B019874
:106990005946C0F140025046FFF790FD06460D46AD
:1069A00050465946019A00F0E8F910EB08006141A1
:1069B000002487EA115284EAE7731A4340D0009A10
:1069C00062B3019A012A4FEA075215DC001B61EB02
:1069D00002014FF0004202EA0752CDE90042001CDA
:1069E00041F5801132462B4600F05AFD03B0BDE858
:1069F000F08F40462146F9E7001B61EB0201001CC5
:106A000041F5801300185B412018A2F5001747EBF1
:106A1000030140EAD570B6196D4111E06D084FEAE7
:106A2000360645EAC0754FEA0752001B61EB0201CA
:106A3000001C41F5801149084FEA3000001951410E
:106A400032462B4603B0BDE8F04F00F01ABD009867
:106A5000012240000023D0EB020263EBE0730098B8
:106A600021464FEAE074B8EB000061EB0401E9E76E
:106A700083F000435BE781F0004158E72DE9FE4FCA
:106A800081EA030404F0004421F0004100944FF037
:106A9000000B23F0004350EA01045ED052EA0304E5
:106AA0005BD0C3F30A54C1F30A552C44A4F2F33467
:106AB0000194A0FB0254C1F3130141F48011C3F30C
:106AC000130343F4801301FB024400FB034E840ACA
:106AD000970A44EA815447EA8357A4FB0768029562
:106AE0008D0A05FB07854FEA932C04FB0C54270500
:106AF000029D4FEA065847EA1637B5EB08056EEBDC
:106B0000070C870E920E47EA811742EA8312A7FB11
:106B10000201B6EB0B0164EB00042B0D43EA0C33CE
:106B20005E1844EB1C50DA465146E7FB0201C5F300
:106B300013044FEA0B3343EA14534FEA0432019C27
:106B400043EA0603A4F10C040294009CCDE900B4CE
:106B500000F0A6FC03B0BDE8F08F00200146F9E785
:106B60000EB5C10F80EAE0700844CA07002140F268
:106B700033438DE80E000A460B4600F091FC03B04B
:106B800000BD0EB540F2334102910021CDE9001164
:106B90000A460B4600F084FC03B000BD70B5C1F39B
:106BA0000A5201F000450024C1F3130140F2FF3303
:106BB00041F480119A4201DA002070BD40F2334363
:106BC0009A42A2F2334203DC524200F0C6F800E0DF
:106BD00090402C43F1D0404270BDC1F30A5210B531
:106BE000C1F3130140F2FF3341F480119A4201DAFC
:106BF000002010BD40F233439A42A2F2334203DC3C
:106C0000524200F0AAF810BD904010BD00F00042C2
:106C100030F000400AD0C10D01F56071C0F31600DC
:106C200042EA0151C2084007114370470020014663
:106C30007047000030B5041E71F1000404DB4FF012
:106C40000044404264EB0101141E73F1000405DBB3
:106C50001C464FF00043524263EB04038B4208BFD3
:106C6000824230BD30B5041E71F1000404DB4FF0E8
:106C70000044404264EB0101141E73F1000405DB83
:106C80001C464FF00043524263EB0403994208BF95
:106C9000904230BD01F0004330B421F0004150EA91
:106CA000010206D00A0DA2F56072C1F31301002A99
:106CB00002DC30BC00207047440F44EAC104C1002C
:106CC000E01830BC00EBC25000F0A4BB30B50B465E
:106CD000014600202022012409E021FA02F59D420C
:106CE00005D303FA02F5491B04FA02F52844151EE0
:106CF000A2F10102F1DC30BD2DE9F05F0546002074
:106D000092469B4688460646814640241BE028461C
:106D100041464746224600F020F853465A46C01ADC
:106D2000914110D3114618462246FFF7C7FB2D1A92
:106D300067EB01084F46224601200021FFF7BEFB0A
:106D400017EB00094E41201EA4F10104DFDC484688
:106D500031462A464346BDE8F09F202A04DB203A0C
:106D600021FA02F00021704721FA02F3D040C2F16B
:106D700020029140084319467047202A06DBCB17B2
:106D8000203A41FA02F043EAE07306E041FA02F3E6
:106D9000D040C2F1200291400843194670473A287A
:106DA00000D2303820F02002412A01D3A2F137006E
:106DB000884201D34FF0FF3070472DE9FF4F1C464A
:106DC00081B00021D4E9016791464FF0FF358A4632
:106DD0008846A1696D1C02988847216A83468847C6
:106DE0000028F6D1BBF1FF3F0CD026F4C066002F7F
:106DF0001ADD700615D5BBF12B0F0AD0BBF12D0F94
:106E00000FD104E04FF0FF3005B0BDE8F08F46F43D
:106E10008066A1696D1C029888477F1E8346002FFB
:106E200002DDBBF1300F03D0B9F1000F2AD025E00D
:106E3000A1696D1C46F400767F1E02988847834640
:106E4000002F05DDBBF1780F06D0BBF1580F03D042
:106E5000B9F1000F10D011E0B9F1000F02D0B9F173
:106E6000100F0BD1A1696D1C26F400767F1E0298CD
:106E700088478346102000E0082081464FEAE970E9
:106E8000009017E00A20F8E74346AAFB092803FB15
:106E90000980DDF800C07F1E0AFB0C0112EB0B0A13
:106EA00041EBEB78A16946F4007605F10105029803
:106EB00088478346002F06DD49465846FFF76FFF97
:106EC0005FEA000BE0D5E16902988847B00502D47B
:106ED0006FF0010098E7F00718D1700610D5700523
:106EE000514605D50023D1EB030163EB080200E016
:106EF00042462068031D23600068C0E9001205E0D7
:106F00002068011D21600068C0E900A828467BE7D1
:106F10002DE9FF4F087883B09946FF2805D0491C1A
:106F20002D2804D00024002008E000200BE00124DC
:106F3000F9E700EB800003EB4000491C0B78FF2BC6
:106F4000F7D104B1404200230293147819461D463C
:106F50002D2C01D02B2C04D1521C2D2C13D000240D
:106F60000294AA461478FF2C0FD00A25A3FB0578BB
:106F700001FB05814FF0000C03FB0C11521CE319BF
:106F80004AEB0101EEE70124EAE7814453EA0100FC
:106F900002D019F5C87F06DA03980021C0E9001174
:106FA00007B0BDE8F08F0025AE4E2F46DFF8B8825F
:106FB000184600F0F5FCCDE90001B9F1000002DA55
:106FC000C9F1000400E004460023A74A1AEB030BB2
:106FD00042EB045A12E0E00707D02A46334638460F
:106FE0004146FFF74BFD074688462A463346104682
:106FF0001946FFF743FD05460E466410002CEAD102
:10700000DDE90001B9F1000F5A46534606DA00F0F7
:1070100095FA3A46434600F091FA05E0FFF72EFD57
:107020003A464346FFF72AFD029A0AB181F0004131
:10703000039AC2E90001B3E72DE9FF4F1F468DB067
:10704000D7E901464FF0FF382E2045464FF00009A2
:107050000B90B9696D1C0E988847396A824688473B
:107060000028F6D1BAF1FF3F0AD024F4D064002EF4
:1070700011DDBAF12B0F08D0BAF12D0F0BD102E0C0
:10708000404611B08DE744F48064B9696D1C0E98D8
:1070900088478246761E6946600501D52D2000E0AE
:1070A0002B208DF8000001F1010B0DF1200809E003
:1070B000B9696D1C0E98884782460F9844F4007495
:1070C000761E0560002E02DDBAF1300FF0D00B996C
:1070D0008A453ED144F0800406E00F99681CA9F16E
:1070E000010944F400740860B9696D1C761E0E989D
:1070F000884782463028F0D02BE00B998A4505D18D
:10710000200603D444F08004761E18E0504602F0B6
:107110005DF808B30DF11301761E44F400748B453D
:1071200008D2AAF130000BF8010B200607D5A9F10F
:10713000010003E0200602D409F101008146A00508
:1071400002D50F99681C0860B9696D1C0E988847B4
:107150008246002ED1DC53E0002E51DDBAF1650FDE
:1071600002D0BAF1450F4BD1A00549D5B9696D1CC4
:1071700024F44074761E0E9888478246002E0CDD5B
:107180002B2804D0BAF12D0F07D144F48074B969CB
:107190006D1C0E9888478246761EE00501D52D218C
:1071A00000E02B2108F8011BCDF82C8021E00DF127
:1071B0002901761E44F4007488450CD2AAF13000EF
:1071C00010F0FF0088F8000002D10B99884509D91A
:1071D00008F1010806E0E00501D5244801E042F28B
:1071E0000F708146B9696D1C0E98884782460F98CA
:1071F0000560002E04DD504601F0E8FF0028D6D1DE
:10720000F9690E988847FF208BF8000088F8000085
:107210000020069007904B466A4608A906A8FFF78B
:1072200077FEA00502D46FF001002AE714F0240FC6
:107230000AD0E00714D1DDE906123868031D3B606F
:107240000068C0E900120BE0DDE90601FFF722FD4E
:107250000146E00704D13868021D3A600068016009
:1072600028460EE7000014400000F03FF1D8FFFF71
:10727000026811441378016018467047D1600449D0
:1072800051610449116200211161114600F0F0B909
:1072900071720200E5640200426842B1016811F8AF
:1072A000013B23B1521EC0E900121846704701216C
:1072B000C160881E704742685AB1C368016843B90B
:1072C00083688B4205D0491E521CC0E90012002081
:1072D00070474FF0FF3070472DE9F05F824600782D
:1072E000002715468B460AF10104B946302801D023
:1072F0009DB113E014F8010B0127782803D058281A
:1073000001D045B10AE00DB1102D07D1002710259D
:1073100014F8010B02E0082500E00A250026B0461B
:107320000EE005FB080005FB06F1012701EB104606
:107330001FFA80F8B6F5803F00D3B94614F8010B68
:107340002946FFF72CFD0028EBDABBF1000F05D032
:107350000FB1641E00E05446CBF80040B9F1000FB5
:1073600006D001F0D9FC02210160C81EBDE8F09FE3
:1073700048EA0640FAE700000FB4002300B589B0E0
:107380000CA900910B996FF00042CB601E4B069345
:107390001E4B07930423CDE901321D4A0892024691
:1073A0006B460020FFF748FE09B05DF814FB70B58E
:1073B00086B006464FF0FF300091CDE90101002074
:1073C00015460C4604903246694604A8FFF7D4FFE0
:1073D00002460498211825B108B1084600E020466D
:1073E0002860049800280DD0002A02DD0098884209
:1073F00008D0081B0094CDE901043246694604A870
:10740000FFF7BAFF06B070BD99720200B7720200B2
:10741000E56402000029A8BF7047401C490008BF6E
:1074200020F00100704710B4B0FA80FC00FA0CF0B4
:1074300050EA010404BF10BC704749B1CCF12004EC
:1074400021FA04F411FA0CF118BF01212143084379
:10745000A3EB0C01CB1D4FEA00614FEA102042BFA5
:10746000002010BC704700EBC35010440029A4BF9B
:1074700010BC7047401C490008BF20F0010010BC40
:10748000704710B5141E73F1000408DA401C41F176
:10749000000192185B411A4301D120F0010010BD98
:1074A0002DE9F04D92469B4611B1B1FA81F202E00E
:1074B000B0FA80F220329046FFF700F804460F46FB
:1074C00040EA0A0041EA0B0153465A46084313D0EA
:1074D000114653EA010019D0C8F140025046FFF7A7
:1074E0003CFC05460E46504659464246FEF7E6FF2E
:1074F000084305D0012004E020463946BDE8F08D60
:107500000020054346EAE0762C4337430A9863059A
:10751000E40AA0EB08000022FD0A44EA47540A30BE
:1075200002D500200146E9E7010510196941DDE9AE
:10753000084500196941BDE8F04DA2E72DE9F04D7D
:1075400081EA030404F0004B21F0004514464FF09B
:10755000000A23F0004150EA050220D054EA01025B
:107560001DD0C5F30A570246C5F31303C1F3130038
:10757000C1F30A5640F4801543F48013A7EB0608C4
:10758000101BD64608F2FD3873EB050002D308F154
:10759000010801E092185B41B8F1000F03DA002006
:1075A0000146BDE8F08D00204FF480110646844668
:1075B0000EE0171B73EB050705D3121B63EB0503E6
:1075C00006434CEA010C49084FEA300092185B412F
:1075D00050EA0107EDD152EA030012D082EA04001A
:1075E00083EA0501084305D0101BAB4106D20122F6
:1075F000002306E000224FF0004302E06FF001029A
:1076000053101AEB06004CEB085110EB0A0041EB4B
:107610000B01BDE8F04DFFF734BFC1F30A52C1F3CF
:10762000130140F2FF3341F480119A4202DA002044
:107630000146704740F233439A42A2F2334202DCE1
:107640005242FFF78ABBFEF739BF0000064C074DD8
:1076500006E0E06840F0010394E807009847103422
:10766000AC42F6D3FEF7D0FD98100400B810040029
:107670002DE9F34F8BB04FF0000801F10C000C46E0
:107680004FF0010B46460DF1080A01906269012195
:1076900001989047051E2DD0252D2CD0216A8847B2
:1076A000C0B16269012101989047216A884700288A
:1076B000F7D1411E62690198904700E0761CA169EC
:1076C0000B988847216A88470028F7D1E1690B9811
:1076D0008847DBE7A1690B9888470746A84201D194
:1076E000761CD3E7E1690B9888477F1C02D1B8F17B
:1076F000000F6FD047E1002762693D463946019887
:1077000090472A2804D162690121019890470125F8
:10771000DFF888926269012101989047A0F1300159
:107720000A290AD24F45E5DC07EB870100EB410748
:10773000303FDFD445F01005ECE7E90601D46FF0E7
:1077400000476C280AD04C2814D0682815D06A2825
:107750000DD074281CD07A281AD01DE0626901214E
:10776000019890476C2802D045F0040514E045F0DC
:1077700002050DE045F020050AE06269012101984B
:107780009047682802D045F0080505E045F40065FB
:107790006269012101989047C4E9015765283DD0ED
:1077A00019DC58287AD00CDC452837D004DC252891
:1077B00026D0412831D131E046282FD047282CD17E
:1077C0002CE05B2877D0612828D063287CD06428FF
:1077D00023D15AE0D1E06F2848D008DC66281DD0BC
:1077E00067281BD0692821D06E2816D127E0702881
:1077F00045D0732868D0752847D078280DD14DE042
:10780000A1690B988847054625283FF469AFE169CF
:107810000B9888476D1C3FF46AAFB4E023466A4674
:107820006FF001000B99FFF707FC9FE045F0400067
:107830006060A80723464FF0000236D43EE0E80718
:107840007FF447AF2068011D21600068290501D53C
:1078500006701BE7290701D5068017E7A90703D59E
:10786000F117C0E9006111E706600FE745F040003D
:107870006060A80723464FF0080216D41EE040F6C9
:107880000E0125EA0100606016E045F040006060EE
:10789000A80723464FF00A0207D40FE045F0400046
:1078A0006060A80708D5234610226FF001000B99ED
:1078B000FFF783FA5AE007E0234610226FF0010039
:1078C0000B99FEF7D9FE51E04FF000094F464B46A9
:1078D000632802D05B2807D041E02079C00601D49C
:1078E0000120A06001273AE06269012101989047D8
:1078F0005E2805D14FF00109626949460198904719
:10790000216939B900210A46534643F82120491C10
:107910000829FADBB0B3216969B9C11700EBD1625C
:1079200053110AEB830122F01F02821A01200B6817
:10793000904003430B6062690121019890475D28E4
:10794000E8D1B9F1000F09D00020514651F82020AC
:10795000D24341F82020401C0828F7DB02AB224626
:1079600000976FF001000B99FEF72CFF00280CDA4E
:10797000401C08D1BBF1000F05D04FF0FF300DB017
:10798000BDE8F08FFFE74046F9E7E90701D108F1CC
:10799000010806444FF0000B78E60000CCCCCC0C7C
:1079A0000EB540F2334202920022CDE90022134686
:1079B000FFF776FD03B000BD70B58C1810F8015BC1
:1079C00015F0070301D110F8013B2A1106D110F878
:1079D000012B03E010F8016B01F8016B5B1EF9D17C
:1079E0002B0705D40023521E0DD401F8013BFAE702
:1079F00010F8013BCB1A921C03E013F8015B01F86D
:107A0000015B521EF9D5A142D8D3002070BD000001
:107A100070B515460E46040009D10C480C49401AB1
:107A2000C008012101EB00400AA10CF083FF072EE2
:107A300003D004EB8600856270BD002104EB810059
:107A4000491CC9B285620729F8D370BDD81004005B
:107A5000C810040073747275637420627574746F57
:107A60006E206973204E554C4C2100002DE9F041E9
:107A70001F4616460C00054609D123482349401AE3
:107A8000C008012101EB004021A10CF053FF50215F
:107A90002046FEF75DFD201D294620225FF00005EF
:107AA00011F8013B00F8013B13B3521EF8D100BF9F
:107AB00014F8240F20F00F00093020F0F00090306F
:107AC00020700920A07044F8246C607867F30100EE
:107AD0006070B04714F8011F60F3830104F8251BA0
:107AE000114904F84A590868024605E000F8015BAC
:107AF000521EFBD1DCE7C06C0028FCD1E2640C60B4
:107B0000BDE8F04100F030BED8100400C8100400F9
:107B100073747275637420627574746F6E20697308
:107B2000204E554C4C210000EC2C002070B5044632
:107B30000068804794F825100025C1F38102824235
:107B400026D094F84A20521CD2B284F84A20022A45
:107B50001ED360F3830184F8251084F84A5094F80A
:107B6000240000F00F01092904D0022902D00107E6
:107B700005D00DE020F00F0084F8240008E020F08C
:107B80000F00401C84F82400E16A09B120468847B0
:107B900094F8240010F00F0123D001294CD00229C1
:107BA0005ED194F84910491CC9B284F849100F29D4
:107BB00056D320F00F00093020F0F000903084F808
:107BC000240000094CD084F84950A16A09B120462C
:107BD000884714F8240F20F00F00093020F0F0003F
:107BE0003DE094F82500C0F3810100F003008142DC
:107BF00036D184F8265094F84B00401CC0B284F86B
:107C00004B0032282CD394F84810491C11F0FF0186
:107C100084F8481004D084F84850032184F82610D2
:107C2000FF2802D1322084F84B00616B002917D065
:107C30002046BDE87040084794F8261089B1032912
:107C40000ED1A16B09B12046884784F84B5014F837
:107C5000240F20F00F00093020F0F00030302070A9
:107C600070BD94F849100F2912D80221B1EB101FF2
:107C70000ED184F82610216B09B12046884714F8EC
:107C8000240F20F00F00093020F0F0009030E6E7DC
:107C900020F00F0004F8495F801C20F0F000A57070
:107CA000203004F8250C70BD054810B5046803E0C9
:107CB0002046FFF73BFFE46C002CF9D110BD00001B
:107CC000EC2C00202DE9F8430025DFF894804FF4D8
:107CD000807601242F46009530460CF043FC38B1E5
:107CE000D8F80403204203D030460CF031FC254381
:107CF000361D64007F1CB6B2082FEDD34FF4BE745E
:107D000020460CF02FFC48B120460CF021FC45F039
:107D100000456A46012100200CF0DCFB15F0FF0F46
:107D200016D0012600242E420ED008EB8401D1F893
:107D30001005D1F81015C0F304200A4AC1F301411F
:107D400052F8242002B190477600641C082CEAD334
:107D5000002D02DA684610F099FCBDE8F8830000B7
:107D60000060004018E800202DE9FC4781460CF037
:107D7000A7FE00BF0CF0C4FC0028FBD12E485FEA30
:107D8000090507682D482E494FF00106A0EB0100B8
:107D90004FEAD00006EB004417D0204629A1AA697B
:107DA0000CF0CCFDD5E90201CDE90001D5E90023B5
:107DB00020462AA10CF0DAFDE8690090D5E90423F9
:107DC000204634A10CF0C9FD03E020463BA10CF095
:107DD000B1FD1948001D0068800703D520464449BD
:107DE0000CF0A8FDDFF80C81002500BF06FA05F0B5
:107DF000384206D058F825201AB120463EA10CF092
:107E00009DFD6D1C1A2DF1D3380606D50A480C309D
:107E1000026820463BA10CF091FD380406D50648C7
:107E20001030026820463FA10CF088FD484600F063
:107E300087F8BDE8FC87000028ED00E098110400F9
:107E4000C810040048415244204641554C5420611A
:107E5000742030782530385800000000202052303F
:107E60003A2020307825303858202052313A2020CE
:107E7000307825303858202052323A20203078256A
:107E8000303858202052333A202030782530385866
:107E90000000000020205231323A2030782530385E
:107EA0005820204C523A2020307825303858202055
:107EB0005053523A2030782530385800537461635B
:107EC0006B2076696F6C6174696F6E3A20737461B0
:107ED000636B20706F696E746572206F757473695F
:107EE000646520737461636B20617265612E0000AC
:107EF000C8020400AC2E002043617573653A20254A
:107F0000732E00004D656D4D616E616765204661A1
:107F1000756C7420416464726573733A20307825FF
:107F200030385800427573204661756C7420416486
:107F300064726573733A2030782530385800000039
:107F4000BFF34F8F05480168054A01F4E061114312
:107F50000160BFF34F8F00BFFDE700000CED00E0B4
:107F60000400FA052DE9FC41074615460E4600249B
:107F70006846009311F08FFF60F30704C4F3C0005C
:107F800030702009387001A9009800F0EFF80099CE
:107F9000019A014400910A44511A022904DB6846FF
:107FA00011F07FFF28800120BDE8FC812DE9FC4114
:107FB000074600240E4625466846009211F06BFFE6
:107FC0000146204661F307000009022819D101A9E2
:107FD000009800F0CBF800990546084401990090FC
:107FE0000144081A02280CDB684611F054FF60F3C4
:107FF000070404F001003870684611F04CFF30703F
:1080000001252846BDE8FC812DE9FC5F8046DDE9BD
:108010000EA00024CDE90004994617460E462546D9
:10802000DDF834B0684611F036FF60F3070420092C
:1080300003282CD1C4F3C00188F80010C4F3410018
:10804000306004F00100387001A9009800F08EF84B
:108050000099054608440199009044182246694653
:108060000C9811F027FF90B10098201A0FD43068B7
:10807000002804DD684611F014FFA9F800000098FC
:10808000211ACAF8001000990125CBF800102846E3
:10809000BDE8FC9F2DE9FC4781460A98002400902A
:1080A0009A46164688462546684611F0F4FE014673
:1080B000204661F307000009092826D101A900988C
:1080C00000F054F8009905460844019900904718BB
:1080D000381A022819DB684611F0E3FEA9F80000FF
:1080E00034600EE03168414502DD4FF0FF350CE0B1
:1080F000684611F0D0FE31688B00491C31604AF8A7
:1081000003000098B842EDD301252846BDE8FC875E
:108110000EB500238DF804308DF8083000920B4620
:10812000024602A901A8FFF71DFF9DF804100B29C4
:1081300000D101200EBDF8B5012500240E460746EA
:108140000C60641C042C0FDC01216846B847012830
:108150000AD19DF80000316800F07F0202FB051192
:10816000ED0131600006ECD42046F8BD024A1060F3
:108170000248FFF7E0BF00006030002055C9020050
:1081800010B503460020CA1701EB526424F07F02A9
:10819000891ACAB2E111002902DD00BF42F0800253
:1081A0001A5400F10100EEDC10BD70B504680E46F3
:1081B00024B12046FEF7FFF9054601E0D0E901545D
:1081C0003046FEF7F8F9854205D12A463146204669
:1081D000FEF70EFA08B1002070BD012070BD00004E
:1081E000401C802801DA401C7047B0F5804F01DA4E
:1081F000801C70470349884201DAC01C7047001D8B
:1082000070470000FFFF1F00F8B50024069E0546DA
:108210000090042901DAA01EF8BD62F3071463F38D
:10822000C304062A24F0060000D1801CC1B26846AF
:1082300014F06EFC02210098FFF7A2FF0099084499
:1082400000903146684614F069FC0098401BF8BD68
:108250002DE9F8430746009088461446002510464D
:1082600000F082F88146FFF7BBFF404502DDA81E03
:10827000BDE8F8832E46314666F3070168461031A3
:1082800014F046FC49460098FFF77AFF009908442D
:108290000090207A04281DD02FA1684614F024FCF9
:1082A0000321684614F034FCA07E66F3070560F3F2
:1082B0004105E07E08B145F00405680707D594F84C
:1082C0003D0060F3C40594F83C0060F34515206C54
:1082D00040B905E022A1684614F006FC0421E0E75D
:1082E000A06C08B145F08005E06C08B9606D08B17C
:1082F00045F040052946684614F00AFC218B684683
:1083000014F00CFC04F10C0168460EC914F015FCC5
:10831000E07E68B12434684694E80E00243C14F0F2
:108320000CFC3034684694E80E00303C14F005FC38
:10833000280605D504F1400168460EC914F0FDFB7E
:10834000680605D54C34684694E80E0014F0F5FB39
:108350000098C01B8CE700004D5149736470000009
:108360004D5154540000000070B50446007A0025B9
:10837000032802D0042802D002E00C2500E00A25E0
:1083800004F10C0007C800F0F5F80544E07EAD1CD0
:1083900078B1243494E80700243C00F0EBF8303442
:1083A000064694E80700303C00F0E4F83044054409
:1083B0002D1D206C08B9A16C29B1D4E9111200F06F
:1083C000D9F80544AD1CE06C08B9616D29B1D4E958
:1083D000141200F0CFF80544AD1C284670BD0C22E5
:1083E00000F0AFB82DE9FC5F1C46129ECDE900609D
:1083F000DDF838B09046DDF830A0DDE90F2389467E
:1084000007465946204600F030F80546FFF7E8FEDB
:10841000484503DD6FF00100BDE8FC9F302168F3A3
:10842000C30164F342016AF3000101A814F070FB78
:1084300029460198FFF7A4FE019908440190DDE95F
:108440000F23594601A814F078FB002C03DD01A886
:108450000D9914F063FB324611990198FEF751F81B
:10846000019830440190C01BD6E770B50E46114606
:1084700004461A463046049D00F07CF82844801CCF
:10848000002C00DD801C70BD2DE9FF4F83B0064637
:1084900010A8894690E88009002492462546414666
:1084A0003846009600F036F80190FFF799FE4845EF
:1084B00003DDA01E07B0BDE8F08F64F3070480342D
:1084C0006AF3C30424F00600801CC1B2684614F0AD
:1084D0001FFBDDE90001FFF753FE009908440090FF
:1084E0006846069914F01AFB0FE000BF05EB450142
:1084F00008EB810090E80E00684614F01EFB1BF8A4
:108500002510684614F004FB6D1CBD42EEDB00989C
:10851000801BCFE72DE9F04102250F4606460024D7
:108520000AE000BF04EB440007EB800007C800F03E
:1085300021F80544641CED1CB442F3DB2846BDE879
:10854000F08138B5002304460090022901DA981E14
:1085500038BD194663F3070162F30711684614F04A
:10856000D7FA00210098FFF70BFE0099084400900D
:10857000001B38BD10B510B1FEF71DF801460846C6
:1085800010BD10B512F060FFBDE8104013F0B4B993
:1085900070B54FF4807630460BF05AFA114CB505A1
:1085A00060B130460BF05BFA0120C5F80803607932
:1085B00020B9012060712168002088474FF482763D
:1085C00030460BF045FA00280AD030460BF047FA47
:1085D0000220C5F808032168BDE870400120084763
:1085E00070BD00000030002010B512F03FFFBDE864
:1085F000104013F05DBA00000149024807F0EDBEDB
:108600000830002000C001402DE9F041164E4FF423
:10861000A07130460CF07AFB0025EFF31184402066
:1086200080F31188D6F80475810030460CF06EFB9B
:1086300015F056F9381A20F07F46012E07D915F0AB
:1086400041F9022803D0002615F056F90543761E9D
:10865000FAD225B105494FF08050086040BFE0B222
:1086600080F31188BDE8F0810010014004ED00E0C6
:1086700000F04CBA70B50E46144900EB400001EB17
:10868000C0051446E86A183520B101280FD0022829
:1086900005D113E0284600F06FFAA04201D2002471
:1086A00011E022463146284600F0ABFA0BE028469E
:1086B00000F062FAA042F4D20446F2E731462846BE
:1086C00000F072FA0446204670BD0000F4E4002079
:1086D0000149024813F022B998E800200030004018
:1086E000F8B54FF040200446114E4FF48C710CF059
:1086F000B8FC00281AD00025C4F81851D4F8180185
:108700000090F07F3446FF2806D0A17F11B10BF016
:10871000F7FE01E00BF00AFF65772572D4E900212E
:1087200001B004F10800BDE8F0401047F8BD0000BA
:1087300074E8002008B500200090094869460068E8
:1087400014F00CF80098002808D006494FF080502B
:10875000086040BFBFF34F8FBFF36F8F08BD0000AD
:10876000802F002004ED00E00348006800E0C06CAA
:108770000028FCD170470000EC2C0020F0B5A44983
:10878000A4484FF080540B68D4F830210078D4F816
:108790003411551CC0F3031006D09446012700265F
:1087A000BCF1060F03D00AE003F0FF0CF6E7B4F8C3
:1087B0002453DFF864C2C5F30425CCF80050DDB2C1
:1087C000062D06D1032804D1DFF854C2934DCCF80E
:1087D0007450551C04D09446BCF1060F03D00AE037
:1087E00003F0FF0CF8E7D4F84452DFF838C2C5F3C1
:1087F0004235CCF80050DDB2062D08D1032806D151
:10880000894DD5F800C02CF0807CC5F800C0551CFF
:1088100004D09446BCF1060F03D00BE003F0FF0C2C
:10882000F8E74FF08045C5F80C61C5F810617D4D43
:108830002D1F2E60DDB2062D08D1032806D1DFF8EA
:10884000E4C103250CF1640CCCF80050DDB2062D18
:1088500010D103280ED1DFF8D4C10525CCF8005083
:10886000724D78352F60714D08352E600CF104067D
:108870003F253560551C04D016460D46062E03D004
:108880005BE0DEB20546F9E7ED1E012D55D9684DD6
:108890002D68684E3560664D2D1D2D68361D35607E
:1088A000634D08352D68361D3560614D0C352D68DA
:1088B000361D35605E4D10352D68361D35605C4DBA
:1088C00014352D68361D3560594D18352D68594EB3
:1088D00020363560564D1C352D68361D3560544D9B
:1088E00020352D68361D3560514D24352D68361DD7
:1088F00035604F4D28352D68361D35604C4D2C3573
:108900002D68361D35604A4D30352D68494E40364C
:108910003560474D34352D68361D3560444D38354A
:108920002D68361D3560424D3C352D68361D35604D
:108930003F4D40352D68361D3560551C03D0164619
:10894000062E02D007E0DEB2FAE7D4F858523A4ECB
:1089500005F04F053560551C03D01346062B02D099
:1089600008E0DBB2FAE735480368DB0702D06FF0B6
:1089700001030360062A07D1C91E022904D9304821
:10898000016841F48061016027487438016841F44E
:1089900070010160BFF34F8FBFF36F8FD4E94C10AC
:1089A0004FF01022062907D1C01E032804D9D2F89F
:1089B00008021C491C310860D2F80002002803DBC1
:1089C000D2F8040200281FDA01200DF0C1FA1521A7
:1089D000C2F800121B480368002BFCD0C2F8041236
:1089E00001680029FCD000200DF0B2FABFF34F8FD0
:1089F0000D48F0380168144A01F4E0611143016048
:108A0000BFF34F8F00BFFDE7114910480860F0BD6C
:108A1000E00F00F0E80F00F0403501400DF0ADBA76
:108A200000C007403C050040FCED00E0105600404F
:108A30000404001020C50040E40E00400004004083
:108A40003C17004000E401400400FA050090D00308
:108A50001830002001480068004700001030002056
:108A60001FB501790831CAB20271182A22D3C17820
:108A7000183A491CC9B2C17002711D291AD38278F3
:108A80000388022A23D01F2907D3042A2AD0062AC2
:108A900028D0092A26D00B2A24D020290AD31F390E
:108AA000C170521CD1B281700C2903D90C3981706C
:108AB0005B1C0380C1788479437902798DE81E00BC
:108AC000837830F8072B0AA100F0E6F81FBD0322D7
:108AD00082709A0803D0642B01D21C3900E01D3942
:108AE000C170E7E71E39C170521C8270E2E70000D6
:108AF00025642F253032642F253032642025303212
:108B0000643A253032643A253032640010B5134C93
:108B1000032020610220606111A0A06104F1900097
:108B2000E0614FF4007020620020A06260620CA13E
:108B30002166E06204F52471616680212067C4E942
:108B40001A10606709A1E01DFDF749FD08A1204644
:108B5000FDF745FD2020A07110BD0000F4E40020C9
:108B60005465726D696E616C0000000052545400CF
:108B700053454747455200000269C1688A4203D8FD
:108B80008068401A104400E0501A401E70470028C8
:108B900009DB00F01F02012191404009800000F133
:108BA000E020C0F8801270472DE9F047C4681746EE
:108BB000894606464FF000083069A04201D9051BDE
:108BC00002E0B168201A0D1AB0686D1E001BA842A1
:108BD00000D80546BD4200D33D4670682A46204471
:108BE0004946FDF78EFCB0687F1B2C44A844A9447D
:108BF000A04200D10024F460002FDDD14046BDE842
:108C0000F0872DE9F04104468846D4E90207C51BE8
:108C1000E168606816460844B54206D94146FDF74A
:108C200070FCB819E060BDE8F0812A464146FDF7C6
:108C300068FC761B08EB050132466068FDF761FCB5
:108C4000E660F0E70FB4054B10B503A9044A02989B
:108C500000F0C8FA10BC5DF814FB0000EDEE020055
:108C6000643000200FB47CB50C0009AD01D0611E4A
:108C700000E00021CDE90001064B6A46294608982C
:108C800000F0B0FA002C02D0009A002111707CBCD8
:108C90005DF814FBEB9802000FB4084B10B504A963
:108CA00002AA039800F09EFA044602A9002000F0F0
:108CB00027FE204610BC5DF814FB0000019902005D
:108CC0007CB50C001D461646014601D0601E00E032
:108CD0000020CDE90010064B6A462946304600F0D8
:108CE00081FA002C02D0009A002111707CBD000096
:108CF000EB98020037B514460846064B6A462146F3
:108D000000F070FA04466946002000F0F9FD2046A4
:108D10003EBD000001990200004870476830002005
:108D200030B583B0044600F0C3F89FED090B05464B
:108D30008DED000B002221466846FEF738FB2846E1
:108D400000F0DEF89DED000B03B030BD0000000028
:108D500000000000000000002DED020B019820F043
:108D6000004001909DED000B02B070470000000034
:108D70002DE9F0412DED020B9FED3D0B2DED028B0A
:108D80009FED3D8BDDE90254C4F30A50A0F2FF369B
:108D9000142E37DA002E18DA53EC102B9DED020B4F
:108DA00051EC100BFDF7C3FD53EC182BFDF75AFFE8
:108DB00057D2002CA4BF0024254652DA24F00040EC
:108DC000284318BF2E4C4CD01AE02E4820FA06F744
:108DD00004EA070028431FD053EC102B9DED020B33
:108DE00051EC100BFDF7A3FD53EC182BFDF73AFFE8
:108DF00037D2002C03DA4FF48010F0400444BC4317
:108E000000252EE0332E07DCA6F114004FF0FF31D1
:108E100021FA00F73D4206D19DED020BBDEC028B1D
:108E200002B0BDE8F08153EC102B9DED020B51EC2C
:108E3000100BFDF720FE53EC182BFDF713FF10D29B
:108E4000002C0DDA142E08BF641C09D0C6F13400C2
:108E5000012101FA00F02844A84238BF641C0546ED
:108E6000BD43CDE902549DED020BD7E700000000A1
:108E70009C7500883CE4377E000000000000000084
:108E80000000F0BFFFFF0F0081070CD1642190FBB1
:108E9000F1F201FB120141B94FF4C87190FBF1F2FC
:108EA00001FB120008B1002070470120704700004C
:108EB00001480068704700006830002002E008C8E0
:108EC000121F08C1002AFAD170477047002001E044
:108ED00001C1121F002AFBD1704700000121202888
:108EE00003DA81400548014003E0402802DA2038D7
:108EF000814009B10120704700207047FC06FFBD8A
:108F00000149086070470000683000202DE9F843EF
:108F1000804643F2020659B969460EF06BFDB04235
:108F200002D008B100F0BAFD9DF80000800744D4DB
:108F3000002140460EF068FD05003ED0112D3CD0CA
:108F40001F482049401AC708022000EB07440D2D96
:108F50000AD00B2D1DD0B5421FD11B4920464246D9
:108F6000BDE8F8430BF0EABC2046424617490BF037
:108F7000E5FC1321404676DF00281ED00CF092F865
:108F8000024601B020464346BDE8F04310A10BF075
:108F9000DCBC204642461C49E2E728460CF082F839
:108FA0000246012000EB0740434618A10BF0CDFC20
:108FB0002846BDE8F84300F071BDBDE8F883000025
:108FC00070110400C810040004FB030090FA0300B1
:108FD00073645F626C655F6761705F646973636F20
:108FE0006E6E65637428292072657475726E65648F
:108FF000202573206F6E20636F6E6E5F68616E64F4
:109000006C652025642E000050FB030041737365DE
:109010007274696E672E20706D5F636F6E6E5F7322
:10902000656375726528292072657475726E656452
:10903000202573206F6E20636F6E6E5F68616E64B3
:109040006C652025642E00002DE9FF5F82B00021B1
:10905000DDE90430020DDDF840B0034318D044F6DA
:109060001050A2F2FF3242431514119801281FD06C
:10907000A5EB0B00401C5FEA000A4FF000064E4FC4
:10908000DFF83891B046504615D5CAF1000413E018
:10909000119801244AA3012801D16FEA0B0102981B
:1090A000119AC0E90031C0E9024206B0BDE8F09F64
:1090B000CBF10000DFE704460021404A491842EBAB
:1090C0000450CDE9001012E0E00707D032463B46DD
:1090D00040464946FDF7D2FC8046894632463B462B
:1090E00010461946FDF7CAFC06460F466410002CD0
:1090F000EAD1DDE90401DDE90023BAF1000F06DA67
:10910000FDF7BCFC42464B46FDF7B8FC05E0FEF718
:1091100015FA42464B46FEF711FA04460E46002267
:10912000284BFDF79FFD03D84FF0FF30014607E0C5
:109130000022254B20463146FDF7F9FBFEF76DFA7C
:10914000102409E0002C0ADB0A220023FDF7D4FDDD
:10915000039B30321A55641E50EA0102F2D1641C9E
:10916000039AC4F111031444119A012A03D0012275
:1091700008430DD10AE0084304D000204FF0110B42
:10918000119072E7A3EB0B056D1E0DE05B4504DD4E
:109190004FF0000205F1010504E003DA4FF0000290
:1091A000A5F10105002AECD002981199C0E902311D
:1091B000C0E9004579E70000000014400000F03FDE
:1091C000300000000000F0430000E03F30380A2883
:1091D00001D201207047002070475060C0E9002193
:1091E000086070472DE9FF4F95B09A4688460646BD
:1091F0000025EEE1252877D100242746F94A0121F0
:10920000039400E0044316F8013F203B01FA03F009
:109210001042F7D130782A2811D06FF02F03307820
:10922000A0F13002092A16D8039A44F0020402EB96
:10923000820203EB42021044761C0390EFE758F8D9
:10924000042B0392002A03DA504244F400540390A2
:1092500044F00204761C30782E2816D116F8010F3F
:1092600044F004042A280DD06FF02F023078A0F1CA
:109270003003092B09D807EB870302EB4303C71818
:10928000761CF3E758F8047B761C30786C280FD0F6
:1092900006DC4C2817D068280DD06A2814D104E0C9
:1092A000742810D07A280FD10DE044F400140AE09D
:1092B00044F4801401E044F440147278824202D1F4
:1092C00004F58014761C761C307866280BD013DCED
:1092D000582877D009DC002875D04528F6D04628D4
:1092E000F4D047281AD193E118E0632835D06428D8
:1092F00079D0652812D18BE1702873D008DC6728FB
:10930000F1D069286FD06E280DD06F2806D1ACE05F
:1093100073282CD0752874D0782853D052461799CA
:1093200090476D1C54E1C4F30250022809D0032871
:109330000DD0D8F8001004280DD00D6008F10408F5
:1093400046E1D8F80010EA17C1E90052F6E7D8F86C
:1093500000100D80F2E70D70F0E718F8041B8DF88F
:10936000001000208DF80100EB46012003E058F8C2
:1093700004BB4FF0FF3061074FF0000102D40DE055
:1093800009F101018946B9420FDA8145F8DB1BF882
:1093900009100029F4D108E009F101018946814250
:1093A000FADB1BF809100029F6D103985346A0EB0D
:1093B000090721463846179A00F080FA284400EB46
:1093C000090507E044E008E10DE01BF8010B5246F7
:1093D00017999047B9F10109F7D25346214638460B
:1093E000179AF2E039E00A21C4F302524FF0000B61
:1093F0000091022A06D058F8040BC117032A09D09D
:109400000AE023E008F1070020F00702F2E8020179
:10941000904605E000B2C117042A01D140B2C1173D
:10942000002906DA0A460021404261EB02012D22A2
:1094300002E0220504D52B228DF80420012203E04E
:10944000E20701D02022F7E7914657E00A2100E029
:1094500010214FF0000B00910BE010214FF0000B9A
:1094600044F004040827009103E008204FF0000BAB
:109470000090C4F30252022A05D058F8040B0021D0
:10948000032A08D008E008F1070020F00702F2E8FC
:109490000201904603E080B2042A00D1C0B24FF02E
:1094A000000922072AD53278702A07D0DDF800C0DB
:1094B0008CF0100C5CEA0B0C05D00EE040228DF80D
:1094C0000420012208E050EA010306D030238DF881
:1094D00004308DF8052002229146009B83F008039A
:1094E00053EA0B030AD150EA010201D1620705D504
:1094F00030228DF804204FF001097F1E3278582A5F
:1095000004D039A20C920CAA02920BE03BA2F9E71C
:109510005B46009AFDF7F0FB0C9B9B5C029A521E87
:109520000292137050EA0102F2D1029804A9081ABB
:1095300000F1200B600702D524F4803400E00127FD
:109540005F4502DDA7EB0B0000E0002000EB0B0104
:10955000009003984944401A0390E00306D4534610
:109560002146179A039800F0A9F90544002706E060
:1095700001A85246C05D179990476D1C7F1C4F454E
:10958000F6DBE0030CD553462146179A039800F00A
:1095900095F9054404E030205246179990476D1C18
:1095A0000099481E00900029F5DC08E00298029915
:1095B00052460078491C0291179990476D1CBBF1E7
:1095C0000001ABF1010BF1DC5BE100F065F9054452
:1095D000761C307800287FF40DAE19B02846BDE81F
:1095E000F08F00000928010030313233343536372E
:1095F00038396162636465660000000030313233DF
:10960000343536373839414243444546000000007E
:10961000600700D4062708F1070020F00700F0E8F3
:109620000223804603F0004C5FEA0C0001D097A0B3
:1096300009E0200501D596A005E0E00701D095A03E
:1096400001E0AFF24C001390307823F0004365281E
:109650000CD006DC452809D046281DD047287FD1EC
:109660003BE0662818D067287AD136E00021112F18
:1096700001DB112000E0781CCDE9000104A90CA851
:10968000FFF7E2FCDDE90D010C9A4FF0000B07F14A
:109690000109109200914EE04FF000400097CDE993
:1096A000011004A90CA8FFF7CFFCDDE90D020C9B0B
:1096B0000F994FF0000B91461093009211B9791C4D
:1096C00000EB0109B7EB090003D4C0F1FF3B07F140
:1096D0000109A9EB0700019042E0012F00DA012700
:1096E0000021112F01DD112000E03846CDE90001F5
:1096F00004A90CA8FFF7A8FCDDE90D010C9A009164
:109700004FF0000BB946109221070FD4009A4A453A
:1097100003DA914601E0A9F10109B9F1010F05DD74
:10972000109AA9F10101515C3029F4D0B84202DA53
:1097300010F1040F03DA0121CDE9011010E0002837
:1097400003DC8344A9EB000102E0411C494500DD34
:109750008946A0EB0B00401C01904FF000400290A6
:10976000200705D40198484502DB4FF0FF300190F7
:1097700000208DF84B0002980DF14B07B0F1004F1F
:1097800025D002200C902B200D90029800280CDA96
:10979000404202902D200D9007E00A210298FDF72B
:1097A00095FA3031029007F8011D0C99481E0C9073
:1097B0000029F2DC02980028EFD1791E0D9808707C
:1097C000307800F0200040F0450007F8020D11A8A5
:1097D000C01BC01D02901398007800B1012000EB5F
:1097E0000901019801EBE071029801440398401AC5
:1097F000401E0390E00306D453462146179A03986F
:1098000000F05CF805441398007818B15246179997
:1098100090476D1CE00323D553462146179A0398C1
:1098200000F04CF805441BE0BBF1000F07DB00988B
:10983000584504DD1098179910F80B0001E01799AE
:1098400030205246904701980BF1010B401E05F164
:109850000105019004D12E205246179990476D1CA6
:10986000B9F10001A9F10109DEDC05E017F8010BEF
:109870005246179990476D1C0299481E0290002984
:10988000F4DC53462146179A03989EE62D0000000B
:109890002B000000200000002DE9F04104460025C7
:1098A0001E461746880404D405E039462020B047F8
:1098B0006D1C641EF9D52846BDE8F0812DE9F04104
:1098C000044600251E469046C80301D5302700E017
:1098D0002027880404D505E041463846B0476D1C72
:1098E000641EF9D52846BDE8F0814A68002A06D0F2
:1098F0000A68531C0B6010704868401E486070472F
:109900000A68531C0B601070704710B560B159B1F4
:1099100002780B785208B2EB530F05D10622401C97
:10992000491CFCF74FFE08B1002010BD012010BDFE
:10993000800701D00020704701207047C3688B4228
:1099400006D811440069491E814201D801207047A0
:109950000020704790F82400012801D01F20704794
:10996000EE20704710B5007860B10C480C49401AE1
:10997000C008032101EB00400AA10AF0DBFF0EF052
:10998000FBFD03E003210B4801F0ECFB002803D0B2
:10999000BDE8104000F082B810BD0000A011040026
:1099A000C8100400457261736520626F6E64732194
:1099B000000000002837002070B58CB015460E4618
:1099C00000236C46C3F10F01415CE1545B1C102B7A
:1099D000F8D30D2104F11000FCF7BAFD0020C0F10E
:1099E0000F02315C2244401C11740328F7D36846EF
:1099F00046DF0020C0F10F01214491F820102954C6
:109A0000401C0328F6D30CB070BD00000149C97892
:109A100001F02CBE542E002010B572B60BF050F899
:109A20000AF06EFE0028FBD111481249401AC40802
:109A3000012000EB044010A10AF07CFF11480068EF
:109A4000C00700D000BE022000EB04400EA10AF0C7
:109A500071FFBFF34F8F0B48E43801680E4A01F4E1
:109A6000E06111430160BFF34F8F00BFFDE70000CD
:109A7000A0110400C8100400466174616C20657276
:109A8000726F7200F0ED00E053797374656D2072AF
:109A900065736574000000000400FA050EB500212E
:109AA0000091CDE901106A4644F20100FFF7B4FFCE
:109AB0000EBD00001CB50E490720CDE900010023B2
:109AC0004FF400720BA10C4813F074FE01280ED065
:109AD0000A480B49401AC008012101EB004009A1C6
:109AE0000AF028FFBDE81C400420FFF7D7BF1CBDCB
:109AF000082B002041505000799B0200A011040067
:109B0000C8100400617070207461736B206E6F74F4
:109B100020637265617465642E00000010B568B141
:109B200001280BD0022809D105480649401AC0086F
:109B3000032101EB004004A10AF0FCFE012010BD4E
:109B4000A0110400C8100400506F776572206D6189
:109B50006E6167656D656E742077616E74732074D5
:109B60006F20726573657420746F20444655206DB4
:109B70006F64652E0000000008F006F94FF4F04411
:109B80000FF028FF204612F073FDF9E710B510F032
:109B900053F8017B00290BD0417B39B100210173BF
:109BA00001688268BDE81040084610470121F6E7C9
:109BB00010BD000038B5046800251AB110B1207B33
:109BC00020B901E0072038BD606808B1082038BD21
:109BD00000202060A060E06011B10120002101E0C0
:109BE000002001216173A2600649024600912346CC
:109BF0004FF47A7104A014F075F8606000B90E2576
:109C0000284638BD8D9B02002000000000207047D0
:109C10007CB54668044626B1207B002803D000208E
:109C20007CBD08207CBDEFF30580226008B30025D1
:109C30000A46019501AB09213046009514F08CF8D5
:109C400001282BD113F052FE024601AB062130460B
:109C5000009514F081F8012820D1019800B3124931
:109C60004FF08050086040BFBFF34F8FBFF36F8F3E
:109C700016E002250A46002304213046009514F020
:109C80006BF801280AD113F02BFE024600230121B4
:109C90003046009514F060F8012801D004207CBD06
:109CA00001202073BBE7000004ED00E07CB5044612
:109CB0004068002500280CD0EFF30581B9B101956B
:109CC00001AB00220821009514F046F8012817D1B5
:109CD00001E008207CBD0198A0B10C494FF08050F4
:109CE000086040BFBFF34F8FBFF36F8F0AE00221C0
:109CF000002300911A46032114F02EF8012801D008
:109D000004207CBD257300207CBD000004ED00E034
:109D100030B5EFF3108172B60D4A9468012324B177
:109D20000370002900D162B630BD93604FF0E0238C
:109D3000D3F88051074C25401560C3F88041D3F813
:109D4000844154605A17C3F8842100220270E8E766
:109D500024760020FC06FFBD0B498A68002A11D03A
:109D600000280FD1EFF3108072B60B684FF0E0229D
:109D7000C2F800314B68C2F8043100228A60002822
:109D800000D162B6704700002476002038B513F089
:109D9000A7FD164D02240246009400230121A86865
:109DA00013F0DAFF012802D00420FFF777FE13F04A
:109DB00097FD0246009400230121E86813F0CCFFD0
:109DC000012802D00420FFF769FE13F089FD024646
:109DD000009400230121286913F0BEFF012804D05C
:109DE000BDE838400420FFF759BE38BDC42C002020
:109DF0002DE9F041064608680C46411C4FF0A0478B
:109E00004FF0010506D005FA00F1C7F808152068E3
:109E10000AF044FB6068411C02D000210AF021FBDB
:109E20003168A069C1F82405607D227D3168104346
:109E3000C1F86C05D4E900123068C0F81425C0F8E8
:109E40000C15207D012815D1A068411C02D00021ED
:109E50000AF007FBE068411C05D08540C7F80855AB
:109E6000E0680AF01BFBD4E902123068C0F808254C
:109E7000C0F81015BDE8F08106F0F8BB0048704747
:109E8000F8E8002002480068002800D00048704729
:109E9000F8E8002010B5806813F07CFA002010BDAF
:109EA0002DE9F84F254C82462046A16100F0E6F9E5
:109EB0002349244A4FF00108A2EB01014FEAD107E0
:109EC000060008EB07450CD0284632461EA10AF0D2
:109ED00035FD2846534626A227A100960AF03DFDEF
:109EE00028E032490520324A086004200C614860AD
:109EF000A1F10800C4E900010BF0ACFD2B4981463B
:109F00000122103920680BF00FFEB9F1000F04D0C8
:109F100028464A4627A10AF011FD84F80C80606BA0
:109F200012F0C2FC032000EB0740534610A22BA105
:109F30000AF00BFD3046BDE8F88F0000F8E800207D
:109F4000C810040018120400415420636C69656E47
:109F50007420696E697469616C697A6520706172D8
:109F600061206661696C6564282564292E00000003
:109F7000312E332E31000000415420636C69656E30
:109F8000742856257329206F6E2064657669636591
:109F900020257320696E697469616C697A65206631
:109FA00061696C6564282564292E00002C3000202E
:109FB0003DA40200415420636C69656E7420696E93
:109FC000697469616C697A65207561727420666173
:109FD000696C6564282564292E00000041542063C3
:109FE0006C69656E742856257329206F6E20646530
:109FF0007669636520257320696E697469616C698F
:10A000007A6520737563636573732E002DE9F84FCD
:10A0100017465FEA00091A481A4A8A46A0EB02006E
:10A020004FEAD0004FF001024FF0000402EB004570
:10A0300013D09E024FF47A78BC4219D2B6FBF8F2E4
:10A0400069464846FFF726FF02000BD028460EA1BE
:10A050000AF074FC0020BDE8F88F284619490AF080
:10A0600069FCF7E79DF800100AF80410641CE3E7A8
:10A070002246514614A000F00FFC2046EBE70000FA
:10A0800018120400C8100400415420436C69656E26
:10A09000742072656365697665206661696C6564C4
:10A0A0002C2075617274206465766963652067652C
:10A0B000742064617461206572726F72282564294E
:10A0C00000000000BC0C04007572635F726563766B
:10A0D0000000000070B5040015460E4616D011A011
:10A0E00000F0DAFB4FF0FF31E06913F0CDF92B46B9
:10A0F00032460021206800F0C1FC002305461A46C4
:10A100001946E06913F096F8284670BD08480949D9
:10A11000401AC008012101EB004007490AF00AFC7F
:10A12000002070BD73656E646C696E650000000090
:10A1300018120400C8100400BC0C04002DE9F35FE1
:10A140000400324832494FF0000AA0EB01004FEA08
:10A15000D0004FF0010101EB00454FF0FF3727D051
:10A160004FF496720021402000F03CFA060026D001
:10A170003946E06913F088F9266213F0B1FB804696
:10A1800001984FF0000B4FEA80294FF47A7700BF17
:10A1900013F0A6FBA0EB0801B9FBF7F0814215D93B
:10A1A00028461CA1019A0AF0C9FB6FF0010A20E0C1
:10A1B000284623490AF0BEFB3846BDE8FC9F2846E6
:10A1C00020A10AF0B7FB6FF00400F6E7C6F808B06C
:10A1D000C6F810B0042327A20021206800F04EFC2E
:10A1E00070698002B0FBF7F1606A13F04DF9012845
:10A1F000CED1304600F030FA0023C4F820B01A4621
:10A200001946E06913F016F85046D6E71812040014
:10A21000C81004007761697420415420636C69653B
:10A220006E7420636F6E6E6563742074696D656F04
:10A230007574282564207469636B292E0000000062
:10A24000040D04006E6F206D656D6F727920666F6E
:10A250007220415420636C69656E7428257329202F
:10A26000726573706F6E7365206F626A6563742EBA
:10A270000000000041540D0A000000002DE9FF41DC
:10A2800004460026267346618169B046012002F02B
:10A2900079FE3249324B0122C91AC90802EB014545
:10A2A000971F206178B300220421402012F06AFF3A
:10A2B000A06000282BD0012012F052FFE06100289E
:10A2C00028D00021481E12F041FF6062002824D0EF
:10A2D000244DC4F82C80C4F830806868009022A314
:10A2E00023A2082102A8FEF7BDFC0820616B8201B1
:10A2F000CDE90001234602A91F4813F05BFA686804
:10A30000401C686026E0FFE728461CA107E02846BD
:10A3100029A104E0284638A101E0284646490AF070
:10A3200009FBE0693E4608B112F062F9A06808B185
:10A3300012F05EF9606A08B112F05AF9206808B1AB
:10A340000BF0CCFC206908B104F0D9FD382120467F
:10A35000FCF7FEF804B03046BDE8F08118120400A6
:10A36000C81004001C30002061745F636C6E7400C0
:10A37000257325640000000041D50200415420638C
:10A380006C69656E7420696E697469616C697A655F
:10A39000206661696C656421204E6F206D656D6F6C
:10A3A000727920666F7220726563656976652062D6
:10A3B00075666665722E0000415420636C69656E97
:10A3C0007420696E697469616C697A652066616977
:10A3D0006C6564212061745F636C69656E745F7283
:10A3E000785F717565756520637265617465206657
:10A3F00061696C6564210000415420636C69656E7D
:10A400007420696E697469616C697A652066616936
:10A410006C6564212061745F636C69656E745F7242
:10A420006563765F6C6F636B206372656174652032
:10A430006661696C65642100EC0B040038B5044664
:10A4400000780D46012817D10020009001221849FC
:10A4500028680BF069FB00236A461549A86812F0CA
:10A4600067FF009840B113494FF08050086040BF2B
:10A47000BFF34F8FBFF36F8F2178012009B90E49C9
:10A4800008702178022911D1D4E902320B490C4C11
:10A49000091BC90800EB01400AA10AF056FA286816
:10A4A000BDE83840012202490BF03EBB38BD000038
:10A4B0001C30002004ED00E04C3000201812040095
:10A4C000C81004004E5246585F554152545F4556DD
:10A4D000545F4552524F525B25645D2C207768656E
:10A4E0006E20256420627974657300000FB42DE935
:10A4F000F0478946074626489DF8281000EB0115CD
:10A5000000218020EA6800F06DF806002148224909
:10A51000A0EB01004FEAD0004FF0010101EB004435
:10A5200028D009021D48FCF713F80BAA1B486968DC
:10A53000FEF7E0FB194A3146384600F0A5F85FEA1D
:10A5400000080FD4B9F1000F0CD03046A96800F014
:10A550006DFA070015D0FCF72EF80246394648463A
:10A56000FCF713F8304600F077F84046BDE8F007F6
:10A570005DF814FB20460AA10AF0DCF96FF0040034
:10A58000F4E720460FA12A680AF0D8F9EAE70000AC
:10A5900038DE0300F0100400C8100400A8400020BA
:10A5A0004E6F206D656D6F727920666F72207265D7
:10A5B00073706F6E736520737472756374757265F2
:10A5C00021000000415420636C69656E7420657839
:10A5D0006563757465205B25735D206661696C65D4
:10A5E000642100002DE9F0410F46064690461821EF
:10A5F000012002F0C7FC04001348144A4FF0010187
:10A60000A0EB02004FEAD00001EB00450ED031462E
:10A61000012002F0B7FC206068B1C4F8148000206B
:10A620006660C4E903702046BDE8F0812846084909
:10A630000AF080F906E0284606490AF07BF9204630
:10A6400004F05DFC0020EFE718120400C8100400BD
:10A65000780C0400340C040010B5040008D0206805
:10A6600008B104F04CFC2046BDE8104004F047BCA3
:10A6700010BD0000024949680160024870470000AF
:10A680004C30002030E900200FB42DE9FC5F0D466E
:10A6900004003D483D494FF0000AA0EB01004FEA9D
:10A6A000D0084FF00101564601EB08474FF0FF3943
:10A6B000CDF804A003D0207B022809D00CE0384656
:10A6C00033490AF037F94846BDE8FC1F5DF814FB32
:10A6D00015B16FF00600F7E7CB464946E06912F086
:10A6E000D3FED146504684F828A00DB1A860286159
:10A6F00025620021A06812F061FDD4E90401FBF796
:10A7000027FFC4F814900FAA20680E9900F0D0F922
:10A71000002D2ED068694FF47A718002B0FBF1F100
:10A72000606A12F0B1FE012816D001A8FFF7A2FF5F
:10A73000034668690221009001EB084015A1019AC7
:10A740000AF00BF91E48C0F800950421C0F8001566
:10A750008E1F84F828600CE094F8280048B101A806
:10A76000FFF788FF0346384616A1019A0AF0EDF874
:10A770005E460023C4F820901A461946E06912F09C
:10A7800059FD3046A0E7000018120400C81004006C
:10A79000BC0C04006578656375746520636F6D6D2E
:10A7A000616E642028252A2E73292074696D656FD7
:10A7B000757420282564207469636B732921000057
:10A7C000002000406578656375746520636F6D6D6A
:10A7D000616E642028252A2E7329206661696C65C4
:10A7E0006421000008B14173704705480549401ACB
:10A7F000C008012101EB004003490AF09BB80000AA
:10A8000018120400C8100400BC0C04002DE9F0412B
:10A8100015460E46040001D000200EE01B481C49DE
:10A82000401AC008012101EB00401A490AF082F8E1
:10A830004FF0FF30BDE8F081401CA842FCD3206BF4
:10A840006FF004074FF00801A0B101EBC001E06A0E
:10A850000FF0B5FBB8B1E062216B042202EBC1013D
:10A860004650D4E90B0140F83150206B401C206366
:10A870000020DFE7012002F085FBE06218B14660AE
:10A88000E06A0560F1E73846D4E7000018120400DA
:10A89000C8100400BC0C04002DE9F84F884682461D
:10A8A000264827490025401AC0080521174601EB14
:10A8B00000443EE005F1200920462B46524621A1E6
:10A8C000CDF800900AF049F80026A819B84206D23F
:10A8D00018F80020204621A10AF030F803E02046B5
:10A8E00020A10AF027F87007B0F1604F03D120468D
:10A8F0001BA10AF01FF8761C202EE6D320461AA1D1
:10A900000AF018F80026A819B8420AD218F8002050
:10A91000A2F120005F2800D32E22204613A10AF0C6
:10A920000DF8761C202EEED3204611A10AF002F875
:10A930004D46BD42BED3BDE8F88F0000A011040013
:10A94000C81004005B41545D2025733A2025303443
:10A95000582D253034583A20000000002530325858
:10A96000200000002020200020200000256300009F
:10A970000A0000002DE9F84300258DF80050044638
:10A980008169A8462F462E460069FBF7E1FD4FF08E
:10A99000FF39C4F814804A4669462046FFF77AFA20
:10A9A000A069A84206D921699DF8000048556D1C90
:10A9B000656100E001269DF800000A2801D10D2FF5
:10A9C00007D0617B09B1814203D0204604F0F0FD3D
:10A9D000A8B1BEB10F481049A269401AC0080121B0
:10A9E00001EB00400D4909F0A9FFA1692069FBF7BF
:10A9F000AFFD6FF00200C4F81480BDE8F8839DF845
:10AA00000070C8E72A4606A02169FFF745FF2846DF
:10AA1000F3E7000018120400C8100400A80B04009B
:10AA2000726563766C696E65000000002DE9F04187
:10AA30000F460646012504680BE039462046FBF721
:10AA400092FD0028204608D1FBF7B5FD0444641CA4
:10AA50006D1C3069A842F0D20020BDE8F0810FB42F
:10AA600010B5FFF7E3FF30B105AA0499FBF7D0FD5D
:10AA700010BC5DF814FB4FF0FF30F9E770B50B4DDB
:10AA8000114600222A701E4647F6FF741A460BF044
:10AA9000C1F8287803E0641E2404240C03D00028A5
:10AAA000F9D0304670BD002070BD00004C30002051
:10AAB00070B5134605460A467E211048FEF700F998
:10AAC0000F490028486017D07E2801D97E204860B1
:10AAD0004C680A480BA1204409880180A41C224626
:10AAE000064909A0FFF7D8FE23462846BDE8704076
:10AAF000024A0021FFF7C2BF70BD000030E900200C
:10AB00004C3000200D0A000073656E646C696E6540
:10AB1000000000002DE9F047814605884A484FF0C3
:10AB200000088AB001784246284600F0B7FD99F83F
:10AB30000500400701D4002176E005F58077B8B222
:10AB400005AB012207210CF0B7FA04003F48404A48
:10AB50004FF00101A0EB02004FEAD00001EB0046EC
:10AB60000AD020460AF09EFA024630462B46394962
:10AB700009F0EBFE214629E0284605F00BFB4FF6D5
:10AB8000FF71044688422BD18A46069805F06CFA7C
:10AB90000446504510D00146284605F0DBFA284609
:10ABA000FEF734FFE0B928460FF0BEFD2846FEF759
:10ABB0002DFF0028BFD013E00CF084FC0446504564
:10ABC00008D1304624A109F0B5FE042128460FF033
:10ABD000D9FDB0E70146284605F0BCFA4FF0010860
:10ABE000B8B2224607210CF0DFFA07001BD0862FEF
:10ABF0001ED00AF057FA024630462B4623490094ED
:10AC000009F0ABFE394628460FF0BCFD002148464E
:10AC10000BF024FEB8F1000F02D0204605F0A4FA94
:10AC20000AB0BDE8F087012148460BF017FEF7E7B0
:10AC3000142217496846FBF764FCADF802506846D9
:10AC400003F0D4FEEFE70000542E0020781104003A
:10AC5000C81004004CFE0300436F756C64206E6FD7
:10AC60007420616C6C6F63617465206E6577207011
:10AC70006565725F696420666F7220696E636F6DCF
:10AC8000696E6720626F6E642E00000068FF03002B
:10AC9000A8E3030070B5044690B0087B0D468DF81C
:10ACA0003800202105A8FBF753FC42F61920ADF827
:10ACB00014000120ADF81800ADF81A000EA8079096
:10ACC000617C9DF82100A21D61F3041040F0020098
:10ACD0008DF82100A87B8DF82700687B8DF8250072
:10ACE000A08805A902F044FB00281CD1A968E1B1A5
:10ACF0000FA801F0E8FB064614216846FBF728FC84
:10AD000042F60810ADF80000E87B8DF806000FA8A9
:10AD1000ADF80A60ADF80E600490E08804F10E0210
:10AD2000694602F01DFF10B070BD0020E081FAE717
:10AD300010B563214FF6FE72094800F02BFB002886
:10AD40000DD008280BD0132809D0112807D043F2C2
:10AD50000141884203D0BDE81040FEF79FBE10BD00
:10AD60005C3B00200A4601461046AEDF70470000FB
:10AD70000EB5074A07CA8DE8070000226946054854
:10AD80000AF048FB002802D003A0FDF75BFF0EBDD0
:10AD90000CDE03007C2C002070776D20696E6974D6
:10ADA000206661696C65640A0000000001234FF4AD
:10ADB000FA62024902480AF099BB000018DE03005B
:10ADC0007C2C002070B51500044609D000202860B6
:10ADD00034B1206820B1A079800703D0072070BD6E
:10ADE0000E2070BD084600F0B7FBC0B2142804D096
:10ADF0002179814203D8042070BD052070BDE2880E
:10AE0000216800FB02102860002070BD2DE9FC477E
:10AE1000002517880646158090F82D0014468946AF
:10AE200030B13A462146484600F05EFC051E09D185
:10AE3000B0784FF00C0A18B32088C846001DB842FD
:10AE400002D95046BDE8FC87684679DF0028F9D171
:10AE50002088032108F8001020881921401C80B2A6
:10AE6000208008F800102088401C80B2208000EB71
:10AE70000801BDF8000011F01FF821880844208067
:10AE8000F0780222C8B1218896F9033001F1030C51
:10AE90004846BC45D5D8425421884FF0010C491C86
:10AEA00089B2218000F801C02188491C89B2218023
:10AEB00009F801302088401C20807068B8B12188D2
:10AEC00090F9003001F1030C4846BC45B9D8425412
:10AED00021880A22491C89B2218042542188491CB8
:10AEE00089B2218009F801302088401C20803089F7
:10AEF00050B1CDE900474B460622022106F1080079
:10AF000011F0D6F9051E9DD1308A50B1CDE9004728
:10AF10004B460722032106F1100011F0C9F9051E66
:10AF200090D1308B50B1CDE900474B46152214210A
:10AF300006F1180011F0BCF9051E83D1306A30B15A
:10AF40003B462246494602F0E9FB051EDBD1706A0A
:10AF500030B13B462246494605F09CFD051ED2D144
:10AF600096F82C0038B13B462246494630460FF051
:10AF700059FD051EC7D1307838B13B4622464946B7
:10AF8000304608F067FA051EBDD128465AE718B5C5
:10AF900004460020ADF8000013466A46204600F043
:10AFA00006F8002802D0BDF80000204418BD70B596
:10AFB000E0B1DAB1002402E0045D2C44A4B2651CC7
:10AFC0008D4206D21688A642F6D8061976789E4299
:10AFD000F2D18C420AD2A31C005D9BB200B1401E8C
:10AFE0000004000C02D01C188C4201D9002070BD56
:10AFF000138070BD80F8301070472DE9F0410D00CE
:10B00000044606D02CB195F87A000026012803D01A
:10B0100006E00E20BDE8F08195F89800012829D0BF
:10B02000D5F8A000042825D0D5F89C00042821D00C
:10B030004FF00108A6702C2205F17801201DFBF7C6
:10B0400060FA84F83060D5F8A4006063D5F8A800F1
:10B05000A0634FF6FF70A4F8240404F58260C4F8DE
:10B060002004C4F82664A4F82A6484F82C642078A8
:10B0700010B104E00720CDE7FF2084F8540004F16C
:10B0800055072046C4F81074FEF764FCA4F81404B5
:10B0900004F2144239462846FFF7B8FE0028B9D119
:10B0A00004F23120C4F818042046FEF753FCA4F83B
:10B0B0001C0404F21C4205F13C00D4F81814FFF7FC
:10B0C000A5FE0028A6D184F85180208BA4F8480062
:10B0D00084F83C80266484F85060606900216064D4
:10B0E000454604F13C02781E72DF002892D125709B
:10B0F00090E72C22001DFBF704BA10B50288102A35
:10B100001BD0112A20D0262A1DD1007A0C460128F6
:10B1100001D0022817D1A0780521401CB0FBF1F224
:10B1200001FB1201204600F01DF800280BD0A16B96
:10B13000002908D0BDE810400847C27B012A02D18F
:10B140008088A1F8240410BD0C46002184F82E1438
:10B150008088B4F824148842F5D120790028F2D1EF
:10B160000121DFE72DE9F05F044600780F4698B132
:10B17000A7700025C4F82654A4F82A5484F82C5447
:10B18000A079012608B1012F09D0E07980B1012F03
:10B1900005D0022F03D00BE00820BDE8F09F616BC3
:10B1A00021B184F82D640820884701E084F82D54EB
:10B1B00004F2274100200A5C0AB1304603E0401C3B
:10B1C0000628F8D300204FF002084FF0030B012FA0
:10B1D00006D0022F0CD0032F0FD0042F15D110E072
:10B1E000A17929B194F8241011B908B130460DE0C5
:10B1F000E17911B108B1404608E0207A08B158461B
:10B2000004E0607A08B1042000E02846A070616B79
:10B2100041B1032801D0042804D1607910B194F819
:10B220002E0498B184F82F5404F13C0018210746ED
:10B23000FBF78EF984F83C6004F12C000CF074FAF2
:10B2400058B194F82C0084F8510008E084F8305488
:10B2500084F82F6407208847E6E784F8516094F863
:10B26000240058B104F128000CF05EFA20B194F8E3
:10B27000280084F8520001E084F8526084F85050AD
:10B28000A27804F2264104F582694FF0060A052AE5
:10B2900064D2DFE802F07C030F22420084F83160C0
:10B2A000C4F82054C4E9101584F83C808020A4F828
:10B2B000480055E084F8318094F82420384612B1D3
:10B2C0000722027001E080F800B0228A8281C4F86F
:10B2D00020544160E168B96042E06069B860208B49
:10B2E000B88194F824003D460028204602D084F816
:10B2F0003CA001E084F83C6010F0B6FF50B185F846
:10B3000014800421204603F0ACFD38BB052184F8ED
:10B31000311021E084F831B01EE0E069B860208C83
:10B32000B88194F824003D460028204602D084F8D5
:10B330003CA001E084F83C6010F096FF48B185F82D
:10B3400014800421204603F08CFD38B984F831A024
:10B3500002E0042084F83100C4F82094A07878B189
:10B360003A4604F15400D4F8201472DF00287FF428
:10B3700014AF94F8301094F8540073DF0028F6D11D
:10B38000616B11B194F831008847002005E784F81B
:10B390003150F5E7F7B594B0174605003CD0287C4E
:10B3A0009DF854100024884252D000264FF0010E20
:10B3B0000D9615A8ADF834E00E90ADF83660E9882A
:10B3C0000DAA4FF6FF70ACDF040026D19DF85400A3
:10B3D0002874687CA0B30F96109611961296E88890
:10B3E000ADF83C00BDF83600ADF840000DA8119056
:10B3F0000E981290A7F57F408DF83EE0FE3805D0FC
:10B4000039460FA8FFF7AEFC044621E0684600F07D
:10B410009DF800256F460FE00E2017B0F0BD00BF6D
:10B4200007EB4506B08800F003F9022803D144B1C8
:10B430000FA9B088AEDF6D1C0098A842F0D807E0D5
:10B4400005E0B1880FA8FFF78DFC0446F3E7082458
:10B450002046E2E738B50D46040018D0BDB1286893
:10B46000206028796074FF20207401208DF802008C
:10B4700041F60F00ADF80000221D69460120A8DF4B
:10B48000002803D129462046FFF704FC38BD0E20D2
:10B4900038BD38B5002924D0002822D00288502A8F
:10B4A0001FD10546487C0C4600281AD0E9886289DD
:10B4B000A81D914215D14189022912D12168002984
:10B4C0000FD00C3000F0FBFF08B1002000E001209D
:10B4D0008DF80000A888ADF8020022686946204671
:10B4E000904738BD70B5040012D001461C221448A4
:10B4F000FBF707F81248134D0560206850B17ADF5A
:10B50000002806D12068016829604068686005E06D
:10B510000E2070BD0B487BDF0028FAD108484FF69B
:10B52000FF711438084A20F8041B054934390160BA
:10B530000021FEF73FFB0028EBD0032070BD000088
:10B54000046B0020AA2D002069C00300014949684E
:10B5500002F0C5B8206B002010B5044600F0BAF820
:10B5600008B1204610BD142010BD000010B50446DF
:10B5700000F0B0F8002805D02146BDE81040024890
:10B5800008F0B8B810BD0000306B00200346034837
:10B5900080680A46194603F091BC0000206B002029
:10B5A00070B515460E46044610F06AFE002809D014
:10B5B000054800EB8400C0692A463146BDE870406A
:10B5C00003F07CBC70BD0000206B002010B5044669
:10B5D00000F080F8002805D02146BDE81040024860
:10B5E00008F088B810BD0000386B002010B5044684
:10B5F00000F070F8002805D02146BDE81040024850
:10B6000008F078B810BD0000346B002070B5054616
:10B61000002400F05FF838B12946044808F06AF8C1
:10B6200008B1022400E00124204670BD2C6B0020EC
:10B6300070B50546002400F04DF838B1294604489D
:10B6400008F058F808B1022400E00124204670BD3B
:10B65000286B002010B51821034808F026F8182898
:10B6600000D0C0B210BD0000206B002070B50546B0
:10B670000C46084610F004FE60B1284600F02AF897
:10B6800040B10548294600EB8400BDE870401C30FD
:10B6900008F030B8002070BD206B002070B5054662
:10B6A00016460C46084610F0EBFD00280ED0284642
:10B6B00000F010F8002809D00548324600EB84005D
:10B6C0002946BDE870401C3003F0C6BB70BD0000C9
:10B6D000206B0020142801D3002070470146014848
:10B6E00008F008B8246B00207CB5054608880C4695
:10B6F0000930904201D90C207CBD68466DDF0028DE
:10B70000FAD121880820685420881B21401C80B26F
:10B71000208029542088401C80B220802844DDF8F5
:10B7200001100160BDF8051081802088801D80B265
:10B7300020809DF80010490800D00121295420885C
:10B74000401C208000207CBD18B103490860002007
:10B7500070470E20704700005C2D00200E480F49F6
:10B7600010B5401AC008042101EB00400CA109F0FB
:10B77000E1F84FF0FF3100203DDF00280BD1B1216F
:10B780003CDF002807D11348416901208847022087
:10B7900009F08EFA002010BDA0110400C8100400AA
:10B7A000496E20626C655F6466755F627574746F64
:10B7B0006E6C6573735F626F6F746C6F61646572DA
:10B7C0005F73746172745F66696E616C697A650D2E
:10B7D0000A0000008C6A0020044810B50068416926
:10B7E00000208847BDE81040FFF7B8BF5C2D00205F
:10B7F00010B588B0044620216846FAF7A9FE032058
:10B80000ADF8000020788DF802009DF80D0017219A
:10B8100040F028008DF80D0001208DF810008DF803
:10B820001300ADF804108DF812008DF80C008DF89F
:10B8300011006088A21D694601F09AFD08B010BD94
:10B8400010B5184C86B01ECC8DE81E0048B1164CC1
:10B850004FF6FF71A180006800216061217618B168
:10B8600004E00E2006B010BD104860610E48FFF7DE
:10B870006BFF0028F6D101208DF812004FF65960B9
:10B88000ADF81000A21C04A90120A8DF0028E9D10E
:10B890000549684662DF0028E4D10348FFF7A8FFA6
:10B8A000E0E7000050E203008C6A0020A5DC020003
:10B8B00010B5002823D003881C4C102B17D021462C
:10B8C000112B8A8815D0C988512B19D0532B16D12A
:10B8D000C088884213D1207E002810D0FFF77CFF5B
:10B8E00000280CD06169BDE810400220084780881C
:10B8F00004E08088824202D14FF6FF70A08010BD24
:10B9000083889342FBD110F8062F022AF7D1428890
:10B910008A42F4D1017A0429F1D00629EFD0052911
:10B92000EDD0BDE81040801C0AF00EBC8C6A0020EF
:10B930002DE9F0410546007B042601272E4C012805
:10B9400011D002282CD00226287B314600F08EF838
:10B9500018B12068416903208847206841690220A6
:10B96000BDE8F041084720684FF00008417E49B12A
:10B970000621012000F07AF800283BD020684169B8
:10B980000320EDE707760121084600F06FF8002854
:10B9900030D02268112882F81880D5D10626D3E746
:10B9A0006A7B142A22D80AB3DFF8508005F10E0111
:10B9B00008F10400FAF7A5FD697BC8F818102168A2
:10B9C0004046497E0029BFD1A0F10C010A68011F41
:10B9D000904768B10F28B7D109480A49401AC008F2
:10B9E00007EB0040084908F0A5FFADE70526ABE7E7
:10B9F00020684776BDE8F0815C2D0020B46A002005
:10BA0000A0110400C810040018F2030070B5154915
:10BA100000250A68002A24D04A68002A21D008316B
:10BA2000904708281DD0104C0028206845760ED07D
:10BA30000621022000F01AF818B12068416903209D
:10BA40008847206841690220BDE87040084701210D
:10BA5000022000F00BF8002803D020684169032081
:10BA6000F2E770BDA86A00205C2D002086B0032399
:10BA7000ADF8003020238DF814308DF81500002229
:10BA80000E48019202928DF81610C188ADF804108C
:10BA900002218DF8061005A90491ADF80820CDF813
:10BAA0000CD0808801A9AEDF002804D1BDF80010B9
:10BAB000032900D00C2006B0704700008C6A0020DB
:10BAC00030B52349234B01250322C91AC9088BB07D
:10BAD00002EB014478B101282DD01D4A1946511AB4
