:020000040002F8
:10600000706F00200964020011640200156502002F
:106010001564020017640200196402000000000009
:106020000000000000000000000000001B640200EF
:106030001D640200000000005B640200A98E0200E3
:10604000158702002364020069910200FD8D0200A1
:10605000118E020023640200E57E02002364020028
:106060002364020051910200236402008987020028
:1060700023640200236402002364020023640200FC
:10608000236402009D87020023640200236402004F
:106090002364020023640200258E020023640200B0
:1060A00023640200236402002364020023640200CC
:1060B0006987020023640200000000000000000065
:1060C00023640200236402002364020023640200AC
:1060D000B187020023640200236402000000000074
:1060E00000000000000000000000000000000000B0
:1060F00000000000000000000000000000000000A0
:10610000000000000000000000000000000000008F
:10611000000000000000000000000000000000007F
:10612000000000000000000000000000000000006F
:10613000000000000000000000000000000000005F
:10614000000000000000000000000000000000004F
:10615000000000000000000000000000000000003F
:10616000000000000000000000000000000000002F
:10617000000000000000000000000000000000001F
:10618000000000000000000000000000000000000F
:1061900000000000000000000000000000000000FF
:1061A00000000000000000000000000000000000EF
:1061B00000000000000000000000000000000000DF
:1061C00000000000000000000000000000000000CF
:1061D00000000000000000000000000000000000BF
:1061E00000000000000000000000000000000000AF
:1061F000000000000000000000000000000000009F
:10620000DFF810D001F0D4FA00480047737B020099
:10621000AFF30080706F002030B4044654E8000FE4
:106220000D4644E80053002BF8D1156030BC704790
:1062300030B4044654E8000F40EA010544E8005336
:10624000002BF7D1156030BC704730B4044654E8D9
:10625000000F00EA010544E80053002BF7D1156058
:1062600030BC704730B4044654E8000F80EA0105A2
:1062700044E80053002BF7D1156030BC704730B4B0
:10628000044654E8000F00EB010544E80053002BDE
:10629000F7D1156030BC704730B4044654E8000FA5
:1062A000A0EB010544E80053002BF7D1156030BC8A
:1062B000704770B404464FF0000054E8006F0D685A
:1062C000AE4207BF44E80023012044E800630E60AB
:1062D000002B1CBF0020F0E770BC704730B40446B0
:1062E00054E8000F88422CBF451A054644E8005385
:1062F000002BF5D1156030BC7047000030B450E879
:10630000012F93B2C48923448489A34228BF1B1B55
:106310000489A34202BFBFF32F8F002007E0C3EA26
:10632000020340E80134002CE9D14FF001000A607B
:1063300030BC704750E8012FC2EA024240E8012118
:106340000029F7D1704730B450E8022F1FFAA2F3AA
:10635000C488A34202BFBFF32F8F00200DE0C48981
:1063600023448489A34228BF1B1BC2EA034340E89D
:106370000234002CE8D14FF001000A6030BC7047B5
:1063800050E8022FC2EA224240E802210029F7D158
:106390007047034653E8022FD988B2EB324F4FF0D3
:1063A000000017BF92B241EA014142EA014104E014
:1063B0005A68B2EB324F08BF012043E80212002AAC
:1063C000E8D1704700B583B002900091019244F289
:1063D000010071466A4605F0F7FF03B000BD0000FA
:1063E000EFF308807047EFF3098070476846704705
:1063F000EFF308807047EFF30980704768467047F5
:1064000080F3098870470000064880470648004727
:10641000FEE7FEE7FEE7FEE7FEE7FEE7FEE7FEE754
:10642000FEE7FEE7C98E020001620200EFF3108072
:1064300072B6704780F310887047444A1368012B86
:1064400004D04FF001031360414A1060414A1160CB
:1064500041484FF0805101607047EFF3108272B6EF
:106460003A48016851B34FF00001016038480168B3
:1064700091B1EFF309811EF0100F08BF21ED108BD1
:1064800021E9F00F4FF000041EF0100F08BF0124A7
:1064900041F8044D006801602E490968096808C97F
:1064A000B1E8F00F002B18BFB1EC108B81F3098815
:1064B0004EF0100E002B18BF2EF0100E82F3108835
:1064C0004EF0040E704723490860EFF3148222F067
:1064D000040282F314881E494FF0000008601B4933
:1064E0004FF0010008601D481D49D0F8002041EA26
:1064F0000201016018484FF080510160194800689E
:10650000006880F3088861B662B6BFF34F8FBFF3AF
:106510006F8F70471EF0040F0CBFEFF30880EFF38E
:10652000098020E9F00F40F804ED40F804ED1EF07A
:10653000040F0CBF80F3088880F3098800B51DF0B4
:1065400059FB5DF804EB4EF0040E7047E830002074
:10655000E0300020E430002004ED00E020ED00E019
:106560000000FFFF08ED00E02DE9F0410024061BCC
:10657000254671F1000605DA01240027D0EB07005B
:1065800067EB0101161E73F1000605DA0027D2EB56
:106590000702012567EB030300F0C0FC86460E46A8
:1065A00017469C46AC4204D00025D0EB050E65EBA7
:1065B000010624B10020D2EB000760EB030C70460B
:1065C00031463A466346BDE8F08100000048704716
:1065D00018E7040010B50446FFF7F8FF0068005DF7
:1065E00000F0010010BD10B5431A934209D2831880
:1065F000881803E010F8011D03F8011D521EF9D29E
:1066000010BD40EA01039B0703D009E008C9121F2F
:1066100008C0042AFAD203E011F8013B00F8013B5C
:10662000521EF9D210BDD2B201E000F8012B491E72
:10663000FBD270470022F6E710B513460A4604461F
:106640001946FFF7F0FF204610BD421E12F8013F29
:10665000002BFBD111F8013B02F8013B002BF9D1D3
:10666000704730B505462A460B4612F8010B13F861
:10667000014B08B1A042F8D01CB1002802D06D1C1B
:10668000F1E7284630BD10B5044604E00B7800F869
:10669000013B03B1491C521EF8D2204610BDCAB2BC
:1066A000401E10F8011F8A4202D00029F9D10020B3
:1066B0007047421C10F8011B0029FBD1801A70475B
:1066C00010B5002200E0521C835C8C5CA34201D117
:1066D000002BF8D1D8B2E1B2401A10BD30B5044653
:1066E0000020034600E05B1C934203D2E05CCD5CDB
:1066F000401BF8D030BD034611F8012B00F8012BE8
:10670000002AF9D11846704730B5054600200346E7
:1067100000E05B1C934205D2EC5CC85C201A01D1FE
:10672000002CF6D130BD0022CBB20178994200D1C5
:106730000246401C0029F8D11046704700B58DB0C4
:10674000099000920B904FF0FF300A9000200C90BF
:1067500004480690044807906A4609A800F0B0FE75
:106760000DB000BDDD740200FB7402000FB400B573
:106770008DB010A909900B9000914FF0FF300A9056
:1067800000200C9005480690054807906A4609A825
:106790000F9900F095FE0DB05DF814FBDD7402005A
:1067A000FB7402002DE9FF5F1D464FF0FF3BD5E96A
:1067B000014691465F464FF00008A9697F1C019889
:1067C0008847296A824688470028F6D1BAF1FF3FF8
:1067D0000CD024F4C064002E19DD600614D5BAF183
:1067E0002B0F09D0BAF12D0F0ED103E0584604B09B
:1067F000BDE8F09F44F48064A9697F1C0198884734
:10680000761E8246002E02DDBAF1300F03D0B9F1B8
:10681000000F26D032E0A969761E44F400747F1C74
:10682000019888478246002E05DDBAF1780F06D020
:10683000BAF1580F03D0B9F1000F10D01EE0B9F132
:10684000000F02D0B9F1100F18D1A969761E24F4F7
:1068500000747F1C019888478246102002E00820BF
:1068600000E00A20814609E008FB0908A969761EB4
:1068700044F400747F1C019888478246002E05DD91
:106880004946504600F0ACFB0028EDDAE969019872
:106890008847A00502D46FF00100A8E7E00725D1E2
:1068A000600613D5600502D5C8F1000000E040463F
:1068B00029680A1D2A600968220501D5087015E0BB
:1068C000220701D5088011E008600FE02868011D4B
:1068D00029600068210502D580F8008006E02107C4
:1068E00002D5A0F8008001E0C0F8008038467EE7BD
:1068F0002DE9FF5FD2E901A74FF0000891699946A1
:106900001446DDF838B0464601988847054659EAEE
:106910000B0005D009E0A169761C0198884705465F
:10692000216A284688470028F5D1681C03D05FEA11
:10693000CA7005D015E04FF0FF3004B0BDE8F09FFD
:106940002068011D2160D0F800800AE05FEACA706B
:1069500001D108F8015BA169761C7F1E0198884768
:106960000546002F1ADD681C18D0B9F1000F0DD0B4
:10697000E81705EBD060421120F01F0059F82210F3
:106980002A1A012090400142E0D107E0BBF1000F3C
:10699000DCD1216A284688470028D7D0E1690198D0
:1069A0008847BBF1000F07D1002E05DD5FEACA70F2
:1069B00002D1002188F80010A068B84203DDBBF1C5
:1069C000000F03D017B16FF00100B6E73046B4E70F
:1069D0002DE9F04791460F4680460446002614F8FC
:1069E000015B2DB1FFF7F2FD0068405DC007F6D1F5
:1069F0002B2D02D02D2D18D0641E4A463946204634
:106A000000F08CFD27B13968A14201D1C7F80080A0
:106A100071054FF002040BD54042002803DD02F05F
:106A20003DFE0460A007BDE8F08746F48066E4E719
:106A30000028F8DA02F032FE04606FF00040F2E75E
:106A400070B5064602F02AFE046805460A220021B7
:106A50003046FFF7BDFF2C6070BD70B5064602F0F2
:106A60001DFE046805460A2200213046FFF7B0FFEC
:106A70002C6070BD2DE9FE4F804681EA0300C00FF7
:106A80000C46009021F0004123F00045B8EB0200D5
:106A9000A94105D24046214690461C460B46024677
:106AA00023F00040104347D0270DC7F30A00C3F37B
:106AB0000A510290401A019040286BDAC3F3130088
:106AC00040F4801B0098924620B10023D2EB030AC9
:106AD00063EB0B0B01985946C0F14002504600F0A1
:106AE0004EFA06460D4650465946019A00F066FA9F
:106AF00010EB08006141002487EA115284EAE77331
:106B00001A4340D0009A62B3019A012A4FEA075211
:106B100015DC001B61EB02014FF0004202EA075254
:106B2000CDE90042001C41F5801132462B4600F0B1
:106B3000D9FD03B0BDE8F08F40462146F9E7001BC0
:106B400061EB0201001C41F5801300185B41201825
:106B5000A2F5001747EB030140EAD570B6196D4165
:106B600011E06D084FEA360645EAC0754FEA075254
:106B7000001B61EB0201001C41F5801149084FEA3E
:106B800030000019514132462B4603B0BDE8F04FAA
:106B900000F099BD0098012240000023D0EB0202D2
:106BA00063EBE073009821464FEAE074B8EB000015
:106BB00061EB0401E9E783F000435BE781F000410A
:106BC00058E72DE9FE4F81EA030404F0004421F068
:106BD000004100944FF0000B23F0004350EA010401
:106BE0005ED052EA03045BD0C3F30A54C1F30A55E2
:106BF0002C44A4F2F3340194A0FB0254C1F313011A
:106C000041F48011C3F3130343F4801301FB0244E6
:106C100000FB034E840A970A44EA815447EA8357EB
:106C2000A4FB076802958D0A05FB07854FEA932CA4
:106C300004FB0C542705029D4FEA065847EA163715
:106C4000B5EB08056EEB070C870E920E47EA81172D
:106C500042EA8312A7FB0201B6EB0B0164EB0004CE
:106C60002B0D43EA0C335E1844EB1C50DA465146B8
:106C7000E7FB0201C5F313044FEA0B3343EA145355
:106C80004FEA0432019C43EA0603A4F10C04029487
:106C9000009CCDE900B400F025FD03B0BDE8F08F05
:106CA00000200146F9E72DE9F04D81EA030404F0E4
:106CB000004B21F0004514464FF0000A23F000413C
:106CC00050EA050220D054EA01021DD0C5F30A574C
:106CD0000246C5F31303C1F31300C1F30A5640F48F
:106CE000801543F48013A7EB0608101BD64608F264
:106CF000FD3873EB050002D308F1010801E092189A
:106D00005B41B8F1000F03DA00200146BDE8F08DC9
:106D100000204FF48011064684460EE0171B73EBEB
:106D2000050705D3121B63EB050306434CEA010C70
:106D300049084FEA300092185B4150EA0107EDD153
:106D400052EA030012D082EA040083EA05010843F4
:106D500005D0101BAB4106D20122002306E0002221
:106D60004FF0004302E06FF0010253101AEB0600EF
:106D70004CEB085110EB0A0041EB0B01BDE8F04D64
:106D800000F0A1BC0EB5C10F80EAE0700844CA074C
:106D9000002140F233438DE80E000A460B4600F016
:106DA000A1FC03B000BD0EB540F2334102910021B9
:106DB000CDE900110A460B4600F094FC03B000BD7B
:106DC00070B5C1F30A5201F000450024C1F313016C
:106DD00040F2FF3341F480119A4201DA002070BD85
:106DE00040F233439A42A2F2334203DC524200F0B3
:106DF000D5F800E090402C43F1D0404270BDC1F383
:106E00000A5210B5C1F3130140F2FF3341F480116F
:106E10009A4201DA002010BD40F233439A42A2F2B6
:106E2000334203DC524200F0B9F810BD904010BD6F
:106E300000F0004230F000400AD0C10D01F5607151
:106E4000C0F3160042EA0151C208400711437047DF
:106E5000002001467047000030B5041E71F10004A7
:106E600004DB4FF00044404264EB0101141E73F157
:106E7000000405DB1C464FF00043524263EB040361
:106E80008B4208BF824230BD30B5041E71F1000450
:106E900004DB4FF00044404264EB0101141E73F127
:106EA000000405DB1C464FF00043524263EB040331
:106EB000994208BF904230BD01F0004330B421F048
:106EC000004150EA010206D00A0DA2F56072C1F33A
:106ED0001301002A02DC30BC00207047440F44EA52
:106EE000C104C100E01830BC00EBC25000F0B4BBDC
:106EF00030B50B46014600202022012409E021FA8A
:106F000002F59D4205D303FA02F5491B04FA02F586
:106F10002844151EA2F10102F1DC30BD2DE9F05F1D
:106F20000546002092469B468846064681464024F8
:106F30001BE0284641464746224600F02FF85346BC
:106F40005A46C01A914110D311461846224600F005
:106F500016F82D1A67EB01084F4622460120002142
:106F600000F00DF817EB00094E41201EA4F10104BA
:106F7000DFDC484631462A464346BDE8F09F202ADA
:106F800004DB203A00FA02F1002070479140C2F180
:106F9000200320FA03F3194390407047202A04DBB2
:106FA000203A21FA02F00021704721FA02F3D04082
:106FB000C2F120029140084319467047202A06DB9F
:106FC000CB17203A41FA02F043EAE07306E041FAB7
:106FD00002F3D040C2F120029140084319467047A5
:106FE0003A2800D2303820F02002412A01D3A2F101
:106FF0003700884201D34FF0FF3070472DE9FF4F33
:107000001C4681B00021D4E9016791464FF0FF355D
:107010008A468846A1696D1C02988847216A834682
:1070200088470028F6D1BBF1FF3F0CD026F4C0669C
:10703000002F1ADD700615D5BBF12B0F0AD0BBF15E
:107040002D0F0FD104E04FF0FF3005B0BDE8F08FF9
:1070500046F48066A1696D1C029888477F1E8346AE
:10706000002F02DDBBF1300F03D0B9F1000F2AD0A1
:1070700025E0A1696D1C46F400767F1E02988847C2
:107080008346002F05DDBBF1780F06D0BBF1580F0A
:1070900003D0B9F1000F10D011E0B9F1000F02D008
:1070A000B9F1100F0BD1A1696D1C26F400767F1E7B
:1070B000029888478346102000E0082081464FEA66
:1070C000E970009017E00A20F8E74346AAFB092878
:1070D00003FB0980DDF800C07F1E0AFB0C0112EBE8
:1070E0000B0A41EBEB78A16946F4007605F1010546
:1070F000029888478346002F06DD49465846FFF729
:107100006FFF5FEA000BE0D5E16902988847B005A0
:1071100002D46FF0010098E7F00718D1700610D57F
:107120007005514605D50023D1EB030163EB08023E
:1071300000E042462068031D23600068C0E9001299
:1071400005E02068011D21600068C0E900A828460C
:107150007BE700002DE9FF4F087883B09946FF28B0
:1071600005D0491C2D2804D00024002008E0002070
:107170000BE00124F9E700EB800003EB4000491C21
:107180000B78FF2BF7D104B140420023029314780F
:1071900019461D462D2C01D02B2C04D1521C2D2C10
:1071A00013D000240294AA461478FF2C0FD00A258D
:1071B000A3FB057801FB05814FF0000C03FB0C11CC
:1071C000521CE3194AEB0101EEE70124EAE781448E
:1071D00053EA010002D019F5C87F06DA03980021AE
:1071E000C0E9001107B0BDE8F08F0025AE4E2F4674
:1071F000DFF8B882184600F085FCCDE90001B9F14E
:10720000000002DAC9F1000400E004460023A74AA6
:107210001AEB030B42EB045A12E0E00707D02A46B0
:10722000334638464146FFF7CCFC074688462A4697
:10723000334610461946FFF7C4FC05460E46641057
:10724000002CEAD1DDE90001B9F1000F5A4653469E
:1072500006DAFFF728FD3A464346FFF724FD05E02E
:10726000FFF7AFFC3A464346FFF7ABFC029A0AB180
:1072700081F00041039AC2E90001B3E72DE9FF4F15
:107280001F468DB0D7E901464FF0FF382E20454606
:107290004FF000090B90B9696D1C0E988847396A48
:1072A000824688470028F6D1BAF1FF3F0AD024F47D
:1072B000D064002E11DDBAF12B0F08D0BAF12D0FDA
:1072C0000BD102E0404611B08DE744F48064B96907
:1072D0006D1C0E9888478246761E6946600501D56A
:1072E0002D2000E02B208DF8000001F1010B0DF1A5
:1072F000200809E0B9696D1C0E98884782460F98EE
:1073000044F40074761E0560002E02DDBAF1300FE1
:10731000F0D00B998A453ED144F0800406E00F99E5
:10732000681CA9F1010944F400740860B9696D1C76
:10733000761E0E98884782463028F0D02BE00B99B5
:107340008A4505D1200603D444F08004761E18E057
:10735000504602F0B3FC08B30DF11301761E44F45D
:1073600000748B4508D2AAF130000BF8010B2006FF
:1073700007D5A9F1010003E0200602D409F10100BC
:107380008146A00502D50F99681C0860B9696D1C7B
:107390000E9888478246002ED1DC53E0002E51DD46
:1073A000BAF1650F02D0BAF1450F4BD1A00549D50E
:1073B000B9696D1C24F44074761E0E988847824685
:1073C000002E0CDD2B2804D0BAF12D0F07D144F488
:1073D0008074B9696D1C0E9888478246761EE00558
:1073E00001D52D2100E02B2108F8011BCDF82C80C0
:1073F00021E00DF12901761E44F4007488450CD279
:10740000AAF1300010F0FF0088F8000002D10B99BB
:10741000884509D908F1010806E0E00501D52448AE
:1074200001E042F20F708146B9696D1C0E988847E1
:1074300082460F980560002E04DD504602F03EFCA7
:107440000028D6D1F9690E988847FF208BF80000F4
:1074500088F800000020069007904B466A4608A96D
:1074600006A8FFF777FEA00502D46FF001002AE717
:1074700014F0240F0AD0E00714D1DDE906123868B1
:10748000031D3B600068C0E900120BE0DDE9060166
:10749000FFF712FD0146E00704D13868021D3A608B
:1074A0000068016028460EE7000014400000F03F2D
:1074B000F1D8FFFF02681144137801601846704745
:1074C000D1600449516104491162002111611146E2
:1074D00000F080B9B5740200D5650200426842B17F
:1074E000016811F8013B23B1521EC0E90012184691
:1074F00070470121C160881E704742685AB1C36855
:10750000016843B983688B4205D0491E521CC0E90B
:107510000012002070474FF0FF3070472DE9F05FF8
:1075200082460078002715468B460AF10104B946C9
:10753000302801D09DB113E014F8010B0127782801
:1075400003D0582801D045B10AE00DB1102D07D164
:107550000027102514F8010B02E0082500E00A2599
:107560000026B0460EE005FB080005FB06F10127EA
:1075700001EB10461FFA80F8B6F5803F00D3B946FC
:1075800014F8010B2946FFF72BFD0028EBDABBF1BD
:10759000000F05D00FB1641E00E05446CBF8004048
:1075A000B9F1000F06D002F079F802210160C81E7F
:1075B000BDE8F09F48EA0640FAE700000FB4002358
:1075C00000B589B00CA900910B996FF00042CB6017
:1075D0001E4B06931E4B07930423CDE901321D4A2F
:1075E000089202466B460020FFF748FE09B05DF89E
:1075F00014FB70B586B006464FF0FF300091CDE920
:107600000101002015460C4604903246694604A844
:10761000FFF7D4FF02460498211825B108B10846A7
:1076200000E020462860049800280DD0002A02DDE2
:107630000098884208D0081B0094CDE90104324626
:10764000694604A8FFF7BAFF06B070BDDD740200FA
:10765000FB740200D56502000029A8BF7047401CDA
:10766000490008BF20F00100704710B4B0FA80FC58
:1076700000FA0CF050EA010404BF10BC704749B195
:10768000CCF1200421FA04F411FA0CF118BF012105
:1076900021430843A3EB0C01CB1D4FEA00614FEAE5
:1076A000102042BF002010BC704700EBC3501044B4
:1076B0000029A4BF10BC7047401C490008BF20F03F
:1076C000010010BC704710B5141E73F1000408DAF5
:1076D000401C41F1000192185B411A4301D120F096
:1076E000010010BD2DE9F04D92469B4611B1B1FA53
:1076F00081F202E0B0FA80F220329046FFF73FFCC0
:1077000004460F4640EA0A0041EA0B0153465A4636
:10771000084313D0114653EA010019D0C8F14002C2
:107720005046FFF73BFC05460E465046594642463A
:10773000FFF725FC084305D0012004E02046394628
:10774000BDE8F08D0020054346EAE0762C43374340
:107750000A986305E40AA0EB08000022FD0A44EA47
:1077600047540A3002D500200146E9E70105101907
:107770006941DDE9084500196941BDE8F04DA2E71E
:10778000C1F30A52C1F3130140F2FF3341F48011F7
:107790009A4202DA00200146704740F233439A428F
:1077A000A2F2334202DC5242FFF7F8BBFFF7E7BB1D
:1077B000064C074D06E0E06840F0010394E807003E
:1077C00098471034AC42F6D3FEF71EFDD4050500F1
:1077D000F40505002DE9F34F8BB04FF0000801F1DF
:1077E0000C000C464FF0010B46460DF1080A0190C3
:1077F0006269012101989047051E2DD0252D2CD0BE
:10780000216A8847C0B16269012101989047216AC5
:1078100088470028F7D1411E62690198904700E02F
:10782000761CA1690B988847216A88470028F7D100
:10783000E1690B988847DBE7A1690B988847074601
:10784000A84201D1761CD3E7E1690B9888477F1CD9
:1078500002D1B8F1000F6FD047E1002762693D46C1
:107860003946019890472A2804D16269012101987C
:1078700090470125DFF888926269012101989047BD
:10788000A0F130010A290AD24F45E5DC07EB870158
:1078900000EB4107303FDFD445F01005ECE7E90687
:1078A00001D46FF000476C280AD04C2814D0682807
:1078B00015D06A280DD074281CD07A281AD01DE063
:1078C00062690121019890476C2802D045F00405B7
:1078D00014E045F002050DE045F020050AE062697C
:1078E000012101989047682802D045F0080505E07D
:1078F00045F400656269012101989047C4E9015788
:1079000065283DD019DC58287AD00CDC452837D0C2
:1079100004DC252826D0412831D131E046282FD05B
:1079200047282CD12CE05B2877D0612828D0632809
:107930007CD0642823D15AE0D1E06F2848D008DCFD
:1079400066281DD067281BD0692821D06E2816D143
:1079500027E0702845D0732868D0752847D078284C
:107960000DD14DE0A1690B988847054625283FF4C5
:1079700069AFE1690B9888476D1C3FF46AAFB4E0CA
:1079800023466A466FF001000B99FFF777FC9FE0F2
:1079900045F040006060A80723464FF0000236D44F
:1079A0003EE0E8077FF447AF2068011D21600068D2
:1079B000290501D506701BE7290701D5068017E7C1
:1079C000A90703D5F117C0E9006111E706600FE7C9
:1079D00045F040006060A80723464FF0080216D427
:1079E0001EE040F60E0125EA0100606016E045F059
:1079F00040006060A80723464FF00A0207D40FE05A
:107A000045F040006060A80708D5234610226FF0BB
:107A100001000B99FFF7F2FA5AE007E02346102223
:107A20006FF001000B99FEF7BDFE51E04FF0000929
:107A30004F464B46632802D05B2807D041E02079AF
:107A4000C00601D40120A06001273AE0626901214B
:107A5000019890475E2805D14FF0010962694946B7
:107A600001989047216939B900210A46534643F8E5
:107A70002120491C0829FADBB0B3216969B9C11773
:107A800000EBD16253110AEB830122F01F02821A2C
:107A900001200B68904003430B606269012101984B
:107AA00090475D28E8D1B9F1000F09D00020514678
:107AB00051F82020D24341F82020401C0828F7DB51
:107AC00002AB224600976FF001000B99FEF710FF02
:107AD00000280CDA401C08D1BBF1000F05D04FF094
:107AE000FF300DB0BDE8F08FFFE74046F9E7E9074A
:107AF00001D108F1010806444FF0000B78E60000C0
:107B0000CCCCCC0C0EB540F2334202920022CDE92F
:107B100000221346FFF7E6FD03B000BD70B58C18D8
:107B200010F8015B15F0070301D110F8013B2A1191
:107B300006D110F8012B03E010F8016B01F8016B7E
:107B40005B1EF9D12B0705D40023521E0DD401F87A
:107B5000013BFAE710F8013BCB1A921C03E013F843
:107B6000015B01F8015B521EF9D5A142D8D3002078
:107B700070BD10B520F0AEFC002010BD054A1168A4
:107B800000E0C96C0029FCD1024A1268C264014AB3
:107B900010607047A82C002070B504460D461646AC
:107BA00054B900BF0DA01CF087FD11A01CF084FD8E
:107BB00016A01CF081FD00BF072D0AD1002005E0B2
:107BC00004F1280141F82060411CC8B20728F7DB06
:107BD00003E004F1280040F8256070BD1B5B3331E1
:107BE0006D5B452F627574746F6E5D200000000040
:107BF00073747275637420627574746F6E20697328
:107C00002052545F4E554C4C210000001B5B306DE0
:107C10000A0000002DE9F04105460C4616461F46B5
:107C200054B900BF1CA01CF047FD20A01CF044FD6F
:107C300025A01CF041FD00BF50212046FEF7FAFCB4
:107C400020222946201D01F0FBF814F8240F20F013
:107C50000F0009302070207820F0F0009030207064
:107C60000920A07044F8246C607867F3010060700C
:107C700054F8240C8047617860F383016170002020
:107C800084F82600243C2046FFF778FF204600F0C9
:107C900075FDBDE8F08100001B5B33316D5B452F46
:107CA000627574746F6E5D200000000073747275ED
:107CB000637420627574746F6E2069732052545F10
:107CC0004E554C4C210000001B5B306D0A0000003B
:107CD00070B5044620688047054694F82500C0F337
:107CE0008100A84233D094F84A00401CC0B284F806
:107CF0004A0002282BDB2434607865F3830060702F
:107D0000002084F8260014F8240900F00F00092848
:107D100005D094F8240000F00F00022806D194F852
:107D2000240020F00F0084F8240010E094F82400D0
:107D300000F00F0058B994F8240020F00F00401C08
:107D400084F82400E06A10B12046E16A884794F87C
:107D5000240000F00F0020B1012832D002287CD18D
:107D60007FE094F82500C0F3810094F8251001F01D
:107D70000301884224D1002084F8260094F84B00A7
:107D8000401CC0B284F84B00322819DB94F848003C
:107D9000401CC0B284F84800012805DB002084F8AC
:107DA0004800032084F8260094F84B00FF2802D1F5
:107DB000322084F84B00606B10B12046616B88471D
:107DC00080E094F8260080BB94F849000F281ADC64
:107DD00094F824000221B1EB101F14D1022084F882
:107DE0002600206B10B12046216B884714F8240F21
:107DF00020F00F0009302070207820F0F000903043
:107E000004F824092CE00020243484F8250084F8A8
:107E10002700207820F00F00801C2070207820F0B0
:107E2000F000203004F824091AE0FFE794F8260057
:107E3000032815D1A06B10B12046A16B8847002004
:107E4000243484F82700207820F00F0009302070B7
:107E5000207820F0F000303000E032E004F824090F
:107E600030E014F8490F401C207014F849090F281D
:107E70000BDB14F8240F20F00F000930207020785D
:107E800020F0F000903004F8240994F849000F28FD
:107E900016DB94F82400000990B1002084F8490012
:107EA000A06A10B12046A16A884714F8240F20F078
:107EB0000F0009302070207820F0F00004F8240929
:107EC00000E000BF00BF70BD10B50548046803E0C6
:107ED0002046FFF7FDFEE46C002CF9D110BD000038
:107EE000A82C00202DE9F84F0026002000904FF428
:107EF00080770125002410E0384617F0E3F840B100
:107F000000BF25480068284018B1384617F0CCF863
:107F10002E436D00381D87B2641C082CECD34FF43F
:107F2000BE7017F0CFF850B14FF4BE7017F0BCF828
:107F300046F000466A460121002017F01DF8F0B215
:107F400010B3012500241DE005EA0600C0B100BF02
:107F5000124850F82400C0F30420814600BF0F48A7
:107F600050F82400C0F301408246204608F020FB70
:107F70008046B8F1000F02D051464846C04700BFC6
:107F80006D00641C082CDFD306F0004010B1684679
:107F900018F09EFEBDE8F88F0463004010650040B5
:107FA0002DE9FE4F04460D4616461F46DDF830A06B
:107FB0000020029001978046814601A819F0E2FF57
:107FC0008DF808000298C0F3C00028700298C0F332
:107FD000031020706946019800F0F8F88146019975
:107FE00008440190DDE9001000EB01080198A8EBBE
:107FF0000000022800DA06E001A819F0CAFF30806C
:108000004FF0010900BF4846BDE8FE8F2DE9FF5F34
:1080100006460C4617469846DDE90FABDDF838906A
:1080200000200390119802900025002001900090FC
:1080300002A819F0A7FF8DF80C000398C0F30310F5
:10804000032800D032E00398C0F3C00030700398DA
:10805000C0F341002060039800F0010038706946C9
:10806000029800F0B3F80190029908440290009938
:10807000029845182A4602A9484619F097FF10B100
:108080000298281A00D511E02068002804DD02A813
:1080900019F07FFFA8F800000298281ACBF800001A
:1080A0000298CAF800000120019000BF019804B0B6
:1080B000BDE8F09F2DE9FE4F05460E4614461F46CB
:1080C000DDE90C9B00200290CDF8049080468246AA
:1080D00001A819F057FF8DF808000298C0F30310AB
:1080E000092800D02CE06946019800F06FF882461C
:1080F000019908440190DDE9001000EB01080198A6
:10810000A8EB0000022800DA1AE001A819F041FFEC
:108110002880002020600DE02068B04202DD4FF092
:10812000FF3A0DE001A819F02DFF2268511C2160D3
:1081300047F8220001984045EED34FF0010A00BFF6
:108140005046BDE8FE8FFEB504460D46164600209B
:108150000290019000272B46224601A902A8009612
:10816000FFF71EFF07469DF808000B2800D10127E6
:108170003846FEBD2DE9F84305460C46012600278A
:108180000020206000BF4FF0FF38781C074604280D
:1081900001DD00BF17E001216846A8478046B8F11D
:1081A000010F00D00FE09DF8001001F07F01206862
:1081B00001FB06002060F6019DF8000000F0800041
:1081C0000028E0D100BF3846BDE8F88370B504460A
:1081D0000D460348046029460248FFF7CBFF70BDF7
:1081E000703200205DF9020030B50246002300BF66
:1081F0000846CD1701EB5565ED11A1EBC515ECB2A5
:10820000CD1701EB5565E911002901DD44F080042B
:1082100018465B1C14540029EADC184630BD2DE9D1
:10822000F04104460E460027B846206828B125686C
:108230002068FEF73EFA074601E0A5686768304609
:10824000FEF737FA8046474508D13A463146284678
:10825000FEF75AFA10B90120BDE8F0810020FBE7D3
:10826000401C802801DA401C0AE0B0F5804F01DA9A
:10827000801C05E00349884201DAC01C00E0001DB3
:1082800070470000FFFF1F002DE9FC4704460E4623
:1082900015461F46DDF82880002001908146009495
:1082A000042E02DA6FF0010924E0019865F307104B
:1082B0000190019867F3C3000190062D01D10121BF
:1082C00000E00021019861F3420001909DF8041044
:1082D000684624F06FFB02210098FFF785FF0099A4
:1082E000084400904146684624F06AFB0098A0EBE1
:1082F000040900BF4846BDE8FC8700002DE9FE43A5
:1083000005460E4614460295002001900090002775
:108310004FF0FF38204600F0A5F807468146FFF7EA
:108320009FFFB04202DD6FF001088FE000208DF862
:108330000400019820F0F000103001909DF8041026
:1083400002A824F037FB39460298FFF74DFF029947
:1083500008440290207A042808D13EA102A824F003
:1083600015FB042102A824F025FB07E03BA102A88D
:1083700024F00CFB032102A824F01CFB00208DF844
:108380000000A17E009861F341000090E07E08B1FA
:10839000012100E00021009861F382000090009824
:1083A000C0F3800058B194F83D10009861F3C40008
:1083B000009094F83C10009861F345100090206CF8
:1083C00008B9A06C20B1009820F0800080300090A7
:1083D000E06C08B9606D20B1009820F0400040309A
:1083E00000909DF8001002A824F0E4FA218B02A866
:1083F00024F0E6FA02A8D4E90423E16824F0F8FAAC
:10840000E07E58B102A8D4E90A23616A24F0F0FAA8
:1084100002A8D4E90D23216B24F0EAFA0098C0F3F6
:10842000C01028B102A8D4E91123216C24F0E0FA8D
:108430000098C0F3801028B102A8D4E91423E16C9D
:1084400024F0D6FA0298A0EB050800BF4046BDE82C
:10845000FE8300004D515454000000004D514973FB
:108460006470000070B504460025207A032801D10D
:108470000C2503E0207A042800D10A25D4E904124F
:10848000E06800F03AF9801C0544E07E68B1D4E968
:108490000A12606A00F031F9861CD4E90D12206BD3
:1084A00000F02BF93044801C0544206C08B9A06C06
:1084B00030B1D4E91112206C00F01FF9801C054482
:1084C000E06C08B9606D30B1D4E91412E06C00F0D2
:1084D00014F9801C0544284670BD70B504460D464D
:1084E0000E222946204600F0E2F870BD70B5044621
:1084F0000D460C222946204600F0D9F870BD2DE922
:10850000F04F87B005460F4690461C46DDE915B68C
:10851000DDE9109A069500200590049003900096DE
:10852000204612A90EC900F042F804900290FFF70D
:1085300097FEB84203DD6FF00100039033E0059829
:1085400020F0F00030300590059868F3C3000590E6
:10855000059864F342000590059869F300000590C2
:108560009DF8141006A824F025FA04990698FFF740
:108570003BFE06990844069006A812A90EC924F0ED
:1085800037FA002C03DD514606A824F019FA3246CA
:1085900059460698FEF727F8069830440690069844
:1085A000401B039000BF039807B0BDE8F08F7FB574
:1085B0000546089E002401A807C800F09EF8801C0C
:1085C00030440444002D00DDA41C204604B070BDDE
:1085D0002DE9FF5F05460E4617469846DDE90E9ADF
:1085E00003950020029001900090002451464846D7
:1085F00000F046F883460190FFF732FEB04202DDFC
:10860000A01E009038E000208DF80800029820F0AD
:10861000F00080300290029867F3C3000290029845
:1086200020F00600801C02909DF8081003A824F09A
:10863000C1F901990398FFF7D7FD03990844039006
:10864000414603A824F0BCF900240FE004EB4400E9
:108650000AEB800C03A89CE80E0024F0C9F91098DE
:1086600010F8241003A824F0A5F9641C4C45EDDB98
:108670000398401B009000BF009804B0BDE8F09F35
:108680002DE9F04105460E46022700240AE004EBDE
:10869000440006EB800393E8070000F02EF8C01CAE
:1086A0000744641CAC42F2DB3846BDE8F0812DE99A
:1086B000FC4104460D46164600200190471E0094DA
:1086C000022D01DA871E15E000208DF804000198C4
:1086D00066F3071001909DF80410684624F06AF9CB
:1086E00000210098FFF780FD009908440090009851
:1086F000071B00BF3846BDE8FC8137B50024009851
:1087000020B10098FDF7D5FF044600E0019C20460B
:108710003EBD000010B54FF4807016F0A3F980B193
:108720004FF4807016F0A7F9012016F0ADF90D484E
:10873000407930B901200B49487108460168002092
:1087400088474FF4827016F08DF950B14FF4827063
:1087500016F091F9022016F097F9024801680120FD
:10876000884710BDDC2E002010B50249024810F0E9
:1087700034F910BDE42E002000C0014000B50246CF
:1087800000F054FB00BD000010B503220021024898
:1087900010F076F910BD000000B0004010B50422C2
:1087A0000121024810F06CF910BD000000100140DA
:1087B00010B504220221024810F062F910BD000039
:1087C000004002402DE9F05F05460F46904699466D
:1087D000DFF860B000BF9BF8000008B900F03EFD74
:1087E00000BFDFF850A0032D1FD2EFF31181084620
:1087F000202181F3118800BF00BF05EB45020AF17B
:10880000600101EBC2043DB12760C4F80480C4F8E4
:10881000089000212161E1600A996161C1B281F390
:10882000118800BF00BF002601E04FF0FF36304640
:10883000BDE8F09F002B00202DE9F05F05460F46B4
:1088400090469946DFF860B000BF9BF8000008B979
:1088500000F004FD00BFDFF850A0032D1FD2EFF39E
:1088600011810846202181F3118800BF00BF05EB6C
:1088700045020AF1180101EBC2043DB12760C4F8BA
:108880000480C4F8089000212161E1600A996161C7
:10889000C1B281F3118800BF00BF002601E04FF094
:1088A000FF363046BDE8F09F002B002038B501228E
:1088B0006946002000F066F80446012C02D19DF8BC
:1088C000004001E04FF0FF34204638BD2DE9F04173
:1088D000094F00BF387808B900F0C0FC00BF064C53
:1088E00060342669E068B04201D0012500E000252F
:1088F0002846BDE8F0810000002B002010B500F0F4
:10890000ADFC10BD2DE9F04707468846DFF870A0A2
:1089100000BF9AF8000008B900F0A0FC00BFEFF318
:1089200011810846202181F3118800BF00BF07EBA9
:1089300047021349183101EBC204E1684D1CA168DC
:10894000A94200D100256169022903D100BF216934
:10895000A942FCD02169A94208D0E268616801EB14
:10896000020989F80080E560012600E00026C1B216
:1089700081F3118800BF00BF3046BDE8F0870000DA
:10898000002B00202DE9F04104460D461646EFF37A
:1089900011808046202080F3118800BF00BF32463E
:1089A0002946204600F00AF8074608F0FF0080F349
:1089B000118800BF00BF3846BDE8F0812DE9F74FB0
:1089C00082B0834617462648009000BF0098007882
:1089D00008B900F043FC00BF0BEB4B0120486030AE
:1089E00000EBC106DDF80C903569D6F80CA04FF00D
:1089F0000008554517D9B068441BBC4201D2204637
:108A000000E03846044670682844019022464846F3
:108A10000199FDF7E8FDA044A1443F1B2544B0683F
:108A2000A84200D10025AAEB0504BC4201D2204691
:108A300000E0384604465CB1706828440190224644
:108A400048460199FDF7CFFDA044A1443F1B2544B2
:108A5000B8F1000F00D03561404605B0BDE8F08F99
:108A6000002B00202DE9F8430446DFF88C8000BF7E
:108A700098F8000008B900F0F1FB00BF0027FF20C4
:108A80008DF80000102C31D21C48005D8DF80100DB
:108A9000194D1835EFF311808046202080F311889E
:108AA00000BF00BF287D00F00300022807D1144852
:108AB000047002226946284600F036FD0FE0284681
:108AC00000F004FC0646022E07D30D480470022273
:108AD0006946284600F063FD01E04FF0FF3708F0DB
:108AE000FF0080F3118800BF00BF01E04FF0FF37A7
:108AF0003846BDE8F8830000002B00200C2F002032
:108B00001C2F00202DE9F04104460D4616460E4F5D
:108B100000BF387808B900F0A1FB00BFEFF3118067
:108B20000746202080F3118800BF00BF3246294647
:108B3000204600F00BF88046F8B280F3118800BFA1
:108B400000BF4046BDE8F081002B00202DE9F04732
:108B5000074688461646C24607EB47011B4800EB0E
:108B6000C109D9F8140020B1012811D0022826D15A
:108B70001EE0484600F0AAFB0546B54201D200249B
:108B800005E0344632465146484600F008FD18E0FC
:108B9000484600F09BFB0546B54201D2284600E05E
:108BA0003046044622465146484600F0F8FC08E0AC
:108BB00032465146484600F0B7FC044601E0002426
:108BC00000BF00BF2046BDE8F0870000182B002042
:108BD0000FB438B5044606A800906A4620460599A9
:108BE00000F007F8054600200090284638BC5DF8E4
:108BF00014FB2DE9F04F99B082460D46144603A8A8
:108C000014904020159000201690CDF860A0179089
:108C100000BF2E786D1C06B9DDE0252E79D1002726
:108C20004FF0010900BF2E78232E12D02B2E0CD02E
:108C30002D2E02D0302E10D103E047F001076D1C1D
:108C40000EE047F002076D1C0AE047F004076D1CB8
:108C500006E047F008076D1C02E04FF0000900BF76
:108C600000BFB9F1000FDED14FF0000800BF2E7831
:108C7000302E01DB392E00DD07E06D1CA6F130003F
:108C800008EB880100EB4108F1E700BF00201390DA
:108C90002E782E2E12D16D1C00BF2E78302E01DBC7
:108CA000392E00DD09E06D1CA6F13000139901EBAF
:108CB000810100EB41001390EFE700BF2E7800BF69
:108CC0006C2E01D0682E02D16D1C2E7800E000E0E1
:108CD000F6E700BF702E5DD008DC252E6AD0582E36
:108CE00035D0632E09D0642E69D113E0732E3CD0A9
:108CF000752E1DD0782E62D128E02168081D2060D5
:108D0000D1F8009009F0FF0B594614A800F0EAFBD7
:108D100056E058E02168081D2060D1F80090CDE9A8
:108D200000870A22494614A8139B00F0EFFA47E097
:108D30002168081D2060D1F80090CDE900870A2243
:108D4000494614A8139B00F057FB39E000BF216887
:108D5000081D2060D1F80090CDE900871022494617
:108D600014A8139B00F048FB2AE02168081D20602E
:108D7000D1F800B000BF9BF800600BF1010B06B901
:108D800006E0314614A800F0ADFB17980028F2DA8F
:108D900000BF15E02168081D2060D1F80090002078
:108DA00008210B461022CDE90010494614A800F016
:108DB00023FB05E0252114A800F094FB00E000BF90
:108DC00000BF6D1C03E0314614A800F08BFB179820
:108DD0000028BFF61EAF00BF179800280ADD1698BE
:108DE00020B103A95046169AFFF78CFEDDE9161054
:108DF00008441790179819B0BDE8F08F10B50249D4
:108E0000024822F075FD10BD144A002000300040D9
:108E100010B503494FF040200FF08EFE10BD00004A
:108E2000E449002010B516F0B3FA10BD03490868F4
:108E300000E0C06C0028FCD170470000A82C002086
:108E400070B50346A2B118460C4600BF14F8016B7A
:108E500000F8016B3EB902E0002500F8015B551EE9
:108E60002A1EF9D102E0551E2A1EEFD100BF00BF15
:108E7000184670BD10B50F214FF0FF3000F0FAFB1F
:108E8000084909684FF47A72B1FBF2F04FF0E02123
:108E9000486100BF00BF0020886100BF0320086157
:108EA00000BF10BDEC2E002010B51BF0C3FB1EF060
:108EB0009BFD1BF0E7FB10BD0148024908607047AD
:108EC0000090D003EC2E002010B515F0B9F928B1B0
:108ED00090480088C0F304208F49086015F00CFA10
:108EE00010B18E488E49486715F068FA30B189484C
:108EF000E0380068C0F342308A49086015F08CFA07
:108F000028B18948006820F080708749086015F012
:108F1000A5FA48B10020854908604FF08041C1F8AA
:108F200010018049091F086015F0C6FA18B1032026
:108F30007C496431086015F0E1FA68B105207C498C
:108F4000086001207A4978310860002078490831AA
:108F500008603F20091F086015F0F2FA002855D07C
:108F60006C48E0300068734908606A48E430006883
:108F7000091D08606748E8300068091D08606548F9
:108F8000EC300068091D08606248F0300068091D77
:108F900008606048F4300068091D08605D48F830DA
:108FA00000686449203108605A48FC300068091D97
:108FB000086061480068091D08605F48001D00687E
:108FC000091D08605C4808300068091D08605A489F
:108FD0000C300068091D086057481030006855497A
:108FE00040310860544814300068091D0860524838
:108FF00018300068091D08604F481C300068091DC2
:1090000008604D4820300068091D086015F0EAF836
:1090100030B14048CC38006800F04F004749086044
:1090200015F03CF940B14648006800F0010018B165
:109030006FF001004249086015F080F928B14148FD
:10904000006840F480603F49086037487438006821
:1090500040F4700034497439086000BF00BF00BF9D
:10906000BFF34F8F00BF00BF00BF00BF00BF00BFF6
:10907000BFF36F8F00BF00BF00BF00BF15F07EF9C8
:1090800020B13148006827491C31086000BF2E48D4
:109090000838006800F0004028B92B48001F00681D
:1090A00000F0004090B3012017F0AEFA15202649D9
:1090B0000839086017F0B2FA15214FF01020C0F8F7
:1090C000041217F0ABFA002017F09EFA00BF00BFA1
:1090D00000BF00BF00BFBFF34F8F00BF00BF00BF86
:1090E0001148F038006800F4E06018490843001D9A
:1090F0000D49F039086000BF00BF00BFBFF34F8FBC
:1091000000BF00BF00BF00BF00BFFDE7FFE7FFF7E4
:10911000D3FE10BD24030010403501400DF0ADBA60
:1091200000C007403C050040FCED00E00C010040A1
:109130001056004020C5004024040010E40E0040FA
:10914000000400403C170040081200100000FA051F
:1091500010B50422024903480FF000FD10BD0000C5
:10916000084A00200090004010B50249024822F051
:1091700092FE10BD484A0020002000401FB5044662
:109180002079083020712079182849DBE078401CCC
:10919000E070207918382071E0781D2840DBA07835
:1091A000022815D1A078401CA0702088C11700EBC0
:1091B0009171891041B12188642291FBF2F119B9B2
:1091C000E0781C38E0702BE0E0781D38E07027E094
:1091D000E0781F2812DBA078042808D0A0780628A1
:1091E00005D0A078092802D0A0780B2806D1E07815
:1091F0001E38E070A078401CA07011E0E0782028B4
:109200000EDBE0781F38E070A078401CA070A078DA
:109210000C2805DDA0780C38A0702088401C208028
:10922000A07961792279E378CDE90032CDE90210A5
:10923000A378228802A1E01D00F0EEF91FBD000016
:1092400025642F253032642F2530326420253032BA
:10925000643A253032643A253032640010B5124C3D
:1092600003202061606111A0A0611349E1614FF406
:10927000806121620021A1626162E1620BA020662F
:109280000E4961661021A16600212167E1666167D0
:109290000BA1E01DFDF72FFA0AA12046FDF72BFADE
:1092A0002020A07110BD0000002B00205465726DBD
:1092B000696E616C00000000A04B0020A04F0020F0
:1092C00052545400534547474552000010B50146DB
:1092D0000A69CB689A4204D88C68641EE41AA01804
:1092E00001E0D41A601E10BD10B5014608460028E2
:1092F00007DB00F01F0301229A40034B440943F8A7
:10930000242000BF10BD000080E200E02DE9FC5FDA
:1093100006460F4692469846DDE90C45002F01DAD5
:10932000784200E0384683464FF0010903E09BFB9A
:10933000FAFB09F10109D345F9DAC84500D9C1465C
:1093400034B1002F03DB05F00400042800D1641EB3
:1093500005F0020010B1B8F1000F11D005F00100C6
:1093600070B96CB108E0641E2021304600F0BAF8F4
:10937000F068002800DA02E00CB1A145F3D300BF89
:10938000F068002836DB002F05DA7F422D213046B9
:1093900000F0A8F807E005F00400042803D12B2111
:1093A000304600F09FF8F068002823DB05F002004B
:1093B000022814D105F0010088B9B8F1000F0ED1D0
:1093C0006CB108E0641E3021304600F08BF8F06884
:1093D000002800DA02E00CB1A145F3D300BFF06829
:1093E000002807DB4346524639463046CDE9004562
:1093F00000F002F8BDE8FC9F2DE9FC5F804689463D
:1094000015461E460C9CCDF804900127BB4605E08E
:109410000198B0FBF5F001900BF1010B0198A84207
:10942000F6D25E4500D9B3460D9800F00100D0B9E0
:10943000CCB10D9800F00200022803D116B93020FB
:10944000009001E02020009009E0641E4046009951
:1094500000F048F8D8F80C00002800DA02E00CB15F
:10946000A345F2D300BFD8F80C00002835DB09E093
:10947000012E01D9761E04E0B9FBF7FAAA4500D205
:1094800001E06F43F4E700BF00BFB9FBF7FA0AFB46
:109490001799134810F80A10404600F023F8D8F83E
:1094A0000C00002800DA03E0B7FBF5F7002FECD141
:1094B00000BF0D9800F0010078B174B109E0641E9E
:1094C0002021404600F00EF8D8F80C00002800DA01
:1094D00002E00CB1A345F2D300BFBDE8FC9F000041
:1094E000ADD2040070B504460E46A568681C6168DC
:1094F000814206D320684655681CA060E068401C85
:10950000E060D4E9011088420DD1A2682168206989
:10951000FFF7F8FAA168884203D04FF0FF30E0600F
:1095200001E00020A06070BD2DE9F05F044689468F
:1095300017464FF0000AE56800BFD4F81080A84530
:1095400003D9A8EB0500461E04E0A5EB0800401C6B
:10955000A1680E1AA068401BB04201D9304601E054
:10956000A068401B0646BE4201D2304600E03846A5
:109570000646606800EB050B324649465846FDF743
:1095800032F8B244B144BF1B3544A068A84200D1B0
:109590000025E560002FD0D15046BDE8F09F2DE9B1
:1095A000F047044689461546E668A068871BAF4227
:1095B0000AD9606800EB060A2A4649465046FDF77C
:1095C00012F87019E06014E0B846606800EB060A13
:1095D000424649465046FDF706F8A5EB0708D4F881
:1095E00004A009EB070142465046FCF7FCFFC4F813
:1095F0000C80BDE8F08700000FB4054B10B503A93F
:10960000044A029800F064FF10BC5DF814FB0000EF
:10961000957B0300783200200FB4084B10B504A9E5
:1096200002AA039800F054FF044602A9002002F0A9
:1096300000FA204610BC5DF814FB000033BA0200AB
:109640007CB50C001D461646014601D0601E00E0A8
:109650000020CDE90010064B6A462946304600F04E
:1096600037FF002C02D0009A002111707CBD000051
:109670001DBA020010B5002804DB4A07130E054A84
:10968000135406E04A07140E034A00F00F031B1F91
:10969000D45410BD00E400E018ED00E0004870472D
:1096A000743200200000000030B583B0044600F0A2
:1096B000C9F89FED090B05468DED000B00222146F0
:1096C0006846FDF796FF284600F01AF99DED000B5D
:1096D00003B030BD000000000000000000000000EA
:1096E0002DED020B019820F0004001909DED000B44
:1096F00002B07047000000002DE9F0412DED020B93
:109700009FED3D0B2DED028B9FED3D8BDDE902546E
:10971000C4F30A50A0F2FF36142E37DA002E18DAFE
:1097200053EC102B9DED020B51EC100BFDF7A2F941
:1097300053EC182BFDF7A8FB57D2002CA4BF002434
:10974000254652DA24F00040284318BF2E4C4CD056
:109750001AE02E4820FA06F704EA070028431FD033
:1097600053EC102B9DED020B51EC100BFDF782F921
:1097700053EC182BFDF788FB37D2002C03DA4FF49B
:109780008010F0400444BC4300252EE0332E07DC5B
:10979000A6F114004FF0FF3121FA00F73D4206D147
:1097A0009DED020BBDEC028B02B0BDE8F08153ECE5
:1097B000102B9DED020B51EC100BFDF7FFF953EC54
:1097C000182BFDF761FB10D2002C0DDA142E08BF08
:1097D000641C09D0C6F13400012101FA00F02844CC
:1097E000A84238BF641C0546BD43CDE902549DED37
:1097F000020BD7E7000000009C7500883CE4377E30
:1098000000000000000000000000F0BFFFFF0F009C
:1098100001460A46C81701EB90708010A1EB80004A
:1098200070B9642091FBF0F300FB131030B94FF4D2
:10983000C87091FBF0F300FB131008B901207047CA
:109840000020FCE7014800687047000074320020E7
:10985000014609B900207047C8B220B1C8B20E4A0B
:10986000105C401CF7E701F47F4028B10A48C1F3BF
:109870000722805C0930EEE701F47F0028B106483A
:10988000C1F30742805C1130E5E7034800EB11604B
:1098900000781930DFE70000E5DF040002E008C8C7
:1098A000121F08C1002AFAD170477047002001E05A
:1098B00001C1121F002AFBD1704700000146202978
:1098C00008DA012088400A4A104008B10120704798
:1098D0000020FCE7402909DAA1F12000012202FA68
:1098E00000F008B10120F2E70020F0E70120EEE7E8
:1098F000FC06FFBD00BFEFF31081084672B670474B
:1099000001490860704700007432002070B50446B9
:109910000D464FF0FF361648006820B915A019F023
:10992000D1FC134908601248006888B10021104832
:10993000006819F0CFFCC8B92A4621460C480068D7
:1099400019F076FC06460A48006819F01BFC0DE089
:1099500000BF09A01AF0B0FE0BA01AF0ADFE11A0D6
:109960001AF0AAFE00BF6FF0050070BD3046FCE79C
:1099700090300020727463001B5B33336D5B572F94
:1099800074696D655D20000043616E6E6F742066C2
:10999000696E642061205254432064657669636572
:1099A000210000001B5B306D0A0000002DE9FF5F05
:1099B00082B00021DDE90430020DDDF840B0034340
:1099C00018D044F61050A2F2FF32424315141198F9
:1099D00001281FD0A5EB0B00401C5FEA000A4FF0E6
:1099E00000064E4FDFF83891B046504615D5CAF103
:1099F000000413E0119801244AA3012801D16FEA61
:109A00000B010298119AC0E90031C0E9024206B088
:109A1000BDE8F09FCBF10000DFE704460021404A9B
:109A2000491842EB0450CDE9001012E0E00707D0DE
:109A300032463B4640464946FDF7C3F880468946D4
:109A400032463B4610461946FDF7BBF806460F4620
:109A50006410002CEAD1DDE90401DDE90023BAF14C
:109A6000000F06DAFDF7ADF842464B46FDF7A9F8C0
:109A700005E0FDF718F942464B46FDF714F9044698
:109A80000E460022284BFDF7FFF903D84FF0FF30B8
:109A9000014607E00022254B20463146FCF7EAFF4D
:109AA000FDF76EFE102409E0002C0ADB0A220023D9
:109AB000FDF734FA039B30321A55641E50EA010256
:109AC000F2D1641C039AC4F111031444119A012ABF
:109AD00003D0012208430DD10AE0084304D000203E
:109AE0004FF0110B119072E7A3EB0B056D1E0DE00B
:109AF0005B4504DD4FF0000205F1010504E003DAE7
:109B00004FF00002A5F10105002AECD0029811994E
:109B1000C0E90231C0E9004579E7000000001440C7
:109B20000000F03F300000000000F0430000E03F84
:109B300070B504462F212046FCF7F5FD051E01D126
:109B4000204670BD681C0546FBE7000010B51DF0FF
:109B500021FD28B14FF0FF3102481BF0F9FC10BD88
:109B60000020FCE7A85A002010B504462CB140F2B2
:109B7000BB52054905A018F057FB1DF00BFD10B1B5
:109B800006481BF0F1FB10BD24E104006C6576650E
:109B90006C203D3D2052545F454F4B00A85A002099
:109BA0002DE9F04104460D461746D4F88C000646D0
:109BB000012D04D1D6E9010116F086FA00E000BFBC
:109BC00000BFBDE8F08170B504462068A0F114051F
:109BD0000020286328461DF093FC002070BD70B55E
:109BE00005460EE0FCF722FC06462868A0F11404A6
:109BF0004FF0FF30206320461DF082FC3046FCF71A
:109C000019FC28461AF0FCFD0028EBD0002070BD9E
:109C10002DE9F04705460C469046994694F83400E5
:109C200000F00400042809D0494620461DF048FEF3
:109C3000064616B13046BDE8F08700BFB8F1000F08
:109C400003D0B8F1010F23D105E004F11401284637
:109C50001AF0B7FD22E02E680FE0A6F1140794F881
:109C6000350097F83510884206DA04F1140107F13F
:109C700014001AF0A6FD02E03668AE42EDD100BF36
:109C8000AE4204D104F1140128461AF09AFD05E011
:109C9000B622044904A018F0C7FA00BF00BF002094
:109CA000C9E70000C3DD04003000000010B5044621
:109CB00004F114001AF060FD002010BD30380A28AD
:109CC00001D2012070470020704700002DE9F04FBD
:109CD00085B006460F469046D6F88C0000F10C0A77
:109CE0004FF00009CB46002500BF2EE005EB4500F4
:109CF00007EB800414216846FCF79CFC20788DF863
:109D00000100A0880190A0680390A07800F00100F5
:109D100018B101208DF8000008E000208DF8000047
:109D2000A07800F0400008B14FF0200B5A46694679
:109D3000504616F0AFFA8146B9F1000F04D04946FB
:109D400005A0FFF759FC03E06D1C4545CED300BFCD
:109D5000284605B0BDE8F08F693263207472616EE9
:109D600073666572206661696C3A6572725B256420
:109D70005D0000002DE9F04781468A46514648467D
:109D80001AF0FAFD064626BB07201BF035FD80467B
:109D9000B8F1000F05D140F215320F490FA018F0AD
:109DA00043FAD8F804400EE0A4F10C073D46A9455B
:109DB00000D107E0514628461AF0DEFD064606B1FE
:109DC00005E000BF246808F104008442ECD100BF24
:109DD00000BF3046BDE8F0879BE10400696E666F06
:109DE000726D6174696F6E20213D2052545F4E5533
:109DF0004C4C000010B5044620461AF087FE10BDFA
:109E00002DE9F04781460C4615462CB929464846AF
:109E1000FFF7B0FFBDE8F08725B92046FFF7EAFF5E
:109E20000020F7E7A4F118072A46214678681AF0BF
:109E3000C9FF0646E6B9DDB129464846FFF79AFF55
:109E40000646AEB1A4B1B868C01BA0F118084545DC
:109E500005D94246214630461AF04DFD04E02A4617
:109E6000214630461AF047FD2046FFF7C3FF00BFEA
:109E70003046CFE75060026041600860704748603C
:109E80000160704710B50446D4E90010FFF7F7FFF2
:109E900010BD00002DE9F04395B0054689461746F0
:109EA00000242DB94FF489721D491EA018F0BCF989
:109EB0002FB940F213121A491BA018F0B5F900E0AF
:109EC000641C4C4505D2285D202802D0285D092855
:109ED000F6D124B94FF0FF3015B0BDE8F08321462C
:109EE000284612F035FD064616B94FF0FF30F3E76D
:109EF0005022002101A81BF0CCF801AA49462846AF
:109F000012F0D4FD8046B8F1000F02D14FF0FF30BF
:109F1000E2E701A94046B04738600020DCE70000D6
:109F20005CD90400636D6400726574700000000009
:109F300070B505460C46032D02DA00F0EBF870BD53
:109F400016A061681CF044FF20B92146284600F0A5
:109F500039F820E012A061681CF03AFF20B92146D0
:109F6000284600F05FF816E00FA061681CF030FF93
:109F700020B92146284600F08DF90CE00CA061685C
:109F80001CF026FF20B92146284600F0D1F902E056
:109F900000F0C0F8D3E700BFD1E700006E756D0098
:109FA0006D6F646500000000726561640000000070
:109FB000777269746500000010B5044620461BF0F6
:109FC000C3FC10BD70B506460C46032E02DA00F045
:109FD000A1F870BDA068FFF7EFFF0546002D06DA77
:109FE00006A0A1681AF068FB00F094F8F1E72A4691
:109FF00009A0A1681AF060FB00BFEAE75061726136
:10A000006D6574657220696E76616C6964203A20B2
:10A010002573210A000000002573203A2025640AD8
:10A02000000000002DE9F04107460C46042F03DA3A
:10A0300000F070F8BDE8F081A06812F0DBFC60B9B8
:10A04000A068FFF7B9FF0646002E0ADA1BA0A16838
:10A050001AF032FB00F05EF8ECE7A068FCF7F0FCC9
:10A0600006461DA0E1681CF0B3FE08B900251EE0FD
:10A070001BA0E1681CF0ACFE08B9012517E01AA08E
:10A08000E1681CF0A5FE08B9022510E01AA0E168FD
:10A090001CF09EFE08B9032509E01BA0E1681CF036
:10A0A00097FE08B9042502E000F034F8C2E7E9B2EF
:10A0B00030461BF071FC00BFBCE7000050617261CC
:10A0C0006D6574657220696E76616C6964203A20F2
:10A0D0002573210A000000006F757470757400000C
:10A0E000696E707574000000696E7075745F7075CC
:10A0F0006C6C757000000000696E7075745F70752F
:10A100006C6C646F776E00006F75747075745F6F40
:10A110006400000010B511A01AF0CEFA14A01AF0D5
:10A12000CBFA20481AF0C8FA1FA01AF0C5FA2AA0E4
:10A130001AF0C2FA34A01AF0BFFA3D481AF0BCFA7D
:10A140003CA01AF0B9FA47A01AF0B6FA4DA01AF0DE
:10A15000B3FA4FA01BF0F8FB10BD000070696E2031
:10A160005B6F7074696F6E5D204750494F0A000045
:10A1700020202020206E756D3A202020202020678E
:10A1800065742070696E206E756D626572206672EE
:10A190006F6D2068617264776172652070696E0A04
:10A1A0000000000018F104002020202020202020A2
:10A1B00020202020202020652E672E204D5348206F
:10A1C0003E70696E206D6F6465204750494F206F67
:10A1D00075747075740A000020202020207265615B
:10A1E000643A2020202020726561642070696E200E
:10A1F0006C6576656C206F66206861726477617249
:10A20000652070696E0A0000202020202020202078
:10A2100020202020202020652E672E204D5348200E
:10A220003E70696E2072656164204750494F0A0094
:10A230006CF104002020202020202020202020203D
:10A24000202020652E672E204D5348203E70696ED9
:10A25000207772697465204750494F2068696768A4
:10A260000A000000202020202068656C703A202021
:10A27000202020746869732068656C70206C697395
:10A28000740A00004750494F20652E672E3A00009F
:10A29000200000002DE9F04106460C46032E03DAAB
:10A2A000FFF738FFBDE8F081A06812F0A3FB60B9AA
:10A2B000A068FFF781FE0546002D0ADA0DA0A1680F
:10A2C0001AF0FAF9FFF726FFECE7A068FCF7B8FBF5
:10A2D000054628461BF084FBC7B2012F04D129464E
:10A2E0000BA01AF0E9F903E029460DA01AF0E4F9F1
:10A2F00000BFD7E7506172616D6574657220696E49
:10A3000076616C6964203A202573210A0000000000
:10A3100070696E5B25645D203D20686967680A008E
:10A3200070696E5B25645D203D206C6F770A0000CC
:10A330002DE9F04107460C46042F03DAFFF7EAFE49
:10A34000BDE8F081A06812F055FB60B9A068FFF786
:10A3500033FE0546002D0ADA15A0A1681AF0ACF903
:10A36000FFF7D8FEECE7A068FCF76AFB054617A0EC
:10A37000E1681CF02DFD20B116A0E1681CF028FD5D
:10A3800008B901260EE014A0E1681CF021FD20B1FF
:10A3900012A0E1681CF01CFD08B9002602E0FFF7DE
:10A3A000B9FECDE7314628461BF03CFB00BFC7E7AE
:10A3B000506172616D6574657220696E76616C6959
:10A3C00064203A202573210A00000000686967684C
:10A3D000000000006F6E00006C6F77006F66660013
:10A3E0002DE9F0410546884616462F4627B9372203
:10A3F000084909A017F018FF34461CB94FF0FF3088
:10A40000BDE8F08122792168386D036828469847B5
:10A410000020F5E743D7040070696E20213D2052EB
:10A42000545F4E554C4C00002DE9F04705468946D7
:10A4300016461F46A846B8F1000F04D116220A4955
:10A440000AA017F0F1FE34460CB1082F02D000200C
:10A45000BDE8F0872168D8F8500082682846904708
:10A4600020713846F4E700002ED7040070696E2092
:10A47000213D2052545F4E554C4C00002DE9F047D1
:10A480000546894616461F46A846B8F1000F04D176
:10A4900026220A490AA017F0C7FE34460CB1082F3D
:10A4A00002D00020BDE8F08722792168D8F850005A
:10A4B0004368284698473846F4E7000038D7040038
:10A4C00070696E20213D2052545F4E554C4C000067
:10A4D0002DE9FF4F95B09A46884606460025EEE1E5
:10A4E000252877D100242746F94A0121039400E06A
:10A4F000044316F8013F203B01FA03F01042F7D164
:10A5000030782A2811D06FF02F033078A0F1300274
:10A51000092A16D8039A44F0020402EB820203EBE4
:10A5200042021044761C0390EFE758F8042B039284
:10A53000002A03DA504244F40054039044F0020429
:10A54000761C30782E2816D116F8010F44F004043A
:10A550002A280DD06FF02F023078A0F13003092B9C
:10A5600009D807EB870302EB4303C718761CF3E710
:10A5700058F8047B761C30786C280FD006DC4C2809
:10A5800017D068280DD06A2814D104E0742810D0A0
:10A590007A280FD10DE044F400140AE044F480144A
:10A5A00001E044F440147278824202D104F5801430
:10A5B000761C761C307866280BD013DC582877D0B0
:10A5C00009DC002875D04528F6D04628F4D0472865
:10A5D0001AD193E118E0632835D0642879D0652832
:10A5E00012D18BE1702873D008DC6728F1D069287C
:10A5F0006FD06E280DD06F2806D1ACE073282CD018
:10A60000752874D0782853D05246179990476D1CFE
:10A6100054E1C4F30250022809D003280DD0D8F821
:10A62000001004280DD00D6008F1040846E1D8F8A8
:10A630000010EA17C1E90052F6E7D8F800100D80C3
:10A64000F2E70D70F0E718F8041B8DF800100020F9
:10A650008DF80100EB46012003E058F804BB4FF0F1
:10A66000FF3061074FF0000102D40DE009F1010154
:10A670008946B9420FDA8145F8DB1BF80910002939
:10A68000F4D108E009F1010189468142FADB1BF8A7
:10A6900009100029F6D103985346A0EB090721467B
:10A6A0003846179A00F080FA284400EB090507E0C5
:10A6B00044E008E10DE01BF8010B52461799904762
:10A6C000B9F10109F7D2534621463846179AF2E00C
:10A6D00039E00A21C4F302524FF0000B0091022A24
:10A6E00006D058F8040BC117032A09D00AE023E06A
:10A6F00008F1070020F00702F2E80201904605E0A9
:10A7000000B2C117042A01D140B2C117002906DAEC
:10A710000A460021404261EB02012D2202E022059F
:10A7200004D52B228DF80420012203E0E20701D09A
:10A730002022F7E7914657E00A2100E010214FF070
:10A74000000B00910BE010214FF0000B44F00404CB
:10A750000827009103E008204FF0000B0090C4F39D
:10A760000252022A05D058F8040B0021032A08D00F
:10A7700008E008F1070020F00702F2E80201904625
:10A7800003E080B2042A00D1C0B24FF000092207D2
:10A790002AD53278702A07D0DDF800C08CF0100C72
:10A7A0005CEA0B0C05D00EE040228DF8042001225B
:10A7B00008E050EA010306D030238DF804308DF80C
:10A7C000052002229146009B83F0080353EA0B0305
:10A7D0000AD150EA010201D1620705D530228DF875
:10A7E00004204FF001097F1E3278582A04D039A284
:10A7F0000C920CAA02920BE03BA2F9E75B46009A8E
:10A80000FCF78CFB0C9B9B5C029A521E029213700D
:10A8100050EA0102F2D1029804A9081A00F1200BB3
:10A82000600702D524F4803400E001275F4502DD93
:10A83000A7EB0B0000E0002000EB0B010090039859
:10A840004944401A0390E00306D453462146179A20
:10A85000039800F0A9F90544002706E001A8524634
:10A86000C05D179990476D1C7F1C4F45F6DBE003D8
:10A870000CD553462146179A039800F095F90544E4
:10A8800004E030205246179990476D1C0099481EED
:10A8900000900029F5DC08E0029802995246007801
:10A8A000491C0291179990476D1CBBF10001ABF157
:10A8B000010BF1DC5BE100F065F90544761C3078B2
:10A8C00000287FF40DAE19B02846BDE8F08F0000D7
:10A8D0000928010030313233343536373839616276
:10A8E000636465660000000030313233343536373A
:10A8F000383941424344454600000000600700D417
:10A90000062708F1070020F00700F0E80223804640
:10A9100003F0004C5FEA0C0001D097A009E020058D
:10A9200001D596A005E0E00701D095A001E0AFF2C7
:10A930004C001390307823F0004365280CD006DCDF
:10A94000452809D046281DD047287FD13BE06628FE
:10A9500018D067287AD136E00021112F01DB1120B1
:10A9600000E0781CCDE9000104A90CA8FFF71EF84F
:10A97000DDE90D010C9A4FF0000B07F1010910926F
:10A9800000914EE04FF000400097CDE9011004A97E
:10A990000CA8FFF70BF8DDE90D020C9B0F994FF0A7
:10A9A000000B91461093009211B9791C00EB01093C
:10A9B000B7EB090003D4C0F1FF3B07F10109A9EB94
:10A9C0000700019042E0012F00DA01270021112F3A
:10A9D00001DD112000E03846CDE9000104A90CA8F2
:10A9E000FEF7E4FFDDE90D010C9A00914FF0000B3A
:10A9F000B946109221070FD4009A4A4503DA9146CE
:10AA000001E0A9F10109B9F1010F05DD109AA9F1E1
:10AA10000101515C3029F4D0B84202DA10F1040F80
:10AA200003DA0121CDE9011010E0002803DC8344A2
:10AA3000A9EB000102E0411C494500DD8946A0EB7D
:10AA40000B00401C01904FF000400290200705D4FD
:10AA50000198484502DB4FF0FF30019000208DF84F
:10AA60004B0002980DF14B07B0F1004F25D00220AA
:10AA70000C902B200D90029800280CDA4042029096
:10AA80002D200D9007E00A210298FCF731FA3031B1
:10AA9000029007F8011D0C99481E0C900029F2DC69
:10AAA00002980028EFD1791E0D980870307800F0D8
:10AAB000200040F0450007F8020D11A8C01BC01D82
:10AAC00002901398007800B1012000EB0901019871
:10AAD00001EBE071029801440398401A401E039074
:10AAE000E00306D453462146179A039800F05CF819
:10AAF00005441398007818B15246179990476D1C79
:10AB0000E00323D553462146179A039800F04CF8EA
:10AB100005441BE0BBF1000F07DB0098584504DD3E
:10AB20001098179910F80B0001E017993020524641
:10AB3000904701980BF1010B401E05F101050190B2
:10AB400004D12E205246179990476D1CB9F100018F
:10AB5000A9F10109DEDC05E017F8010B524617994F
:10AB600090476D1C0299481E02900029F4DC534660
:10AB70002146179A03989EE62D0000002B00000046
:10AB8000200000002DE9F041044600251E4617462E
:10AB9000880404D405E039462020B0476D1C641EAB
:10ABA000F9D52846BDE8F0812DE9F041044600259D
:10ABB0001E469046C80301D5302700E020278804B0
:10ABC00004D505E041463846B0476D1C641EF9D5F2
:10ABD0002846BDE8F0814169026951610169426915
:10ABE0001161C1688268D1608168C26891607047F4
:10ABF0002DE9FF4F85B005460E461746DDE9128B5D
:10AC00002DB94FF4F1627A497AA017F00DFB28466E
:10AC10001AF006FE042805D040F2897274497A4879
:10AC200017F002FB00BF19F019F90390FBF7FEFBC8
:10AC3000029017F0CBFD48B16D4974A019F03CFDAE
:10AC400040F28C726A497CA017F0EEFA0398012852
:10AC500009D1674979A019F02FFD40F28C7264493F
:10AC600075A017F0E1FA00BFFBF7E0FB01901CF0C4
:10AC700091FC48B95E497BA019F01EFD40F28C7230
:10AC80005B496DA017F0D0FA00BFFBF7CFFB009037
:10AC900019F0EAFC48B1564980A019F00DFD40F2C8
:10ACA0008C72534964A017F0BFFA0098FBF7C2FBFF
:10ACB00000BF0198FBF7BEFB00BF0298FBF7BAFB91
:10ACC00000BF26B94FF0FF3009B0BDE8F08F4FF05C
:10ACD000FF3A1CF05FFC04466FF00801216300BFDF
:10ACE0007848006818B1284676490968884700BF47
:10ACF000FBF79CFB049007F0010030B1E86930409D
:10AD0000B04211D14FF0000A0EE007F0020028B166
:10AD1000E869304040B14FF0000A05E040F2AB7204
:10AD2000334945A017F080FABAF1000F14D1002082
:10AD30002063B8F1000F03D0E8693040C8F8000084
:10AD4000E8693040A06484F84C7007F00400B8B3A0
:10AD5000E869B043E8613DE0089840B96FF0010050
:10AD600020630498FBF766FB6FF00100ACE7A66474
:10AD700084F84C706A7A5B46214605F11400FEF7B0
:10AD800047FF8146B9F1000F04D00498FBF752FB4E
:10AD9000484699E70898002809DD08AA002104F12F
:10ADA00058001CF0BBFE04F158001DF015F8049883
:10ADB000FBF740FB1BF02EF8206B10B1206B83E7F4
:10ADC00008E0FBF733FB0490B8F1000F02D0A06C51
:10ADD000C8F800000498FBF72DFB00BF3A48006854
:10ADE00018B1284638490968884700BF206B6BE7CF
:10ADF000F1DE04006576656E7420213D2052545FBB
:10AE00004E554C4C00000000E4FA040046756E6399
:10AE100074696F6E5B25735D3A2073636865647552
:10AE20006C6572206973206E6F7420617661696C45
:10AE300061626C650A0000003000000046756E63B8
:10AE400074696F6E5B25735D3A20696E746572720A
:10AE50007570742069732064697361626C65640A3B
:10AE60000000000046756E6374696F6E5B25735D4C
:10AE7000207368616C6C206E6F742062652075733E
:10AE80006564206265666F726520736368656475CA
:10AE90006C65722073746172740A000046756E638B
:10AEA00074696F6E5B25735D207368616C6C206ED6
:10AEB0006F74206265207573656420696E20495344
:10AEC000520A0000183200201C3200202DE9F74FF2
:10AED00082B00446904600BF18F0C0FF0746FBF75B
:10AEE000A5FA019017F072FC48B18F498FA019F0B4
:10AEF000E3FB40F29F428C4997A017F095F9012F90
:10AF000009D1894995A019F0D7FB40F29F428649A3
:10AF100091A017F089F900BFFBF788FA81461CF071
:10AF200039FB48B9804997A019F0C6FB40F29F420F
:10AF30007D4989A017F078F900BFFBF777FA8346BF
:10AF400019F092FB48B178499CA019F0B5FB40F28A
:10AF50009F42754980A017F067F95846FBF76AFAD7
:10AF600000BF4846FBF766FA00BF0198FBF762FA9C
:10AF700000BF2CB940F2A2426B499AA017F054F9D5
:10AF800020461AF04DFC032805D040F2A342664942
:10AF9000994817F049F91CF0FDFA0546FBF746FA07
:10AFA000824600BF9548006818B120469349096859
:10AFB000884700BF00202863206AA8420ED1A07FE6
:10AFC000FF2803DAA07F401CA0779FE05046FBF7E4
:10AFD00031FA6FF0020005B0BDE8F08F206AC8B901
:10AFE0002562FF2060770120A077207FFF280AD00C
:10AFF000207F216A91F83510884204DA217F424689
:10B00000206A00F005FE04F1240105F13C0019F06E
:10B01000BCFB7BE0039840B96FF001002863504609
:10B02000FBF708FA6FF00100D5E795F83570627A02
:10B030004346294604F11400FEF7EAFD064626B110
:10B040005046FBF7F7F93046C5E76C64607FB842BD
:10B050000BDD6777607F216A91F83510884204DA4A
:10B0600002223946206A00F0D3FD0398002809DD4A
:10B0700003AA002105F158001CF050FD05F158000D
:10B080001CF0AAFE5046FBF7D5F91AF0C3FEFBF7F9
:10B09000CDF98246286BA8B34FF00009206A40B171
:10B0A000206A90F8350095F83510884201D14FF0AC
:10B0B000010904F1140019F0A3FB30B96169A1F191
:10B0C000140090F83510617701E0FF206077B9F146
:10B0D000000F0DD0206A00F0CBFC0746206A90F8E4
:10B0E0003500B84204D002223946206A00F090FDB3
:10B0F0005046FBF79FF9002068642E6B002E02DD9E
:10B10000704268E701E0304665E700BF5046FBF754
:10B1100091F900BF3A48006818B1204638490968DB
:10B12000884700BF002056E774DE040046756E6352
:10B1300074696F6E5B25735D3A207363686564752F
:10B140006C6572206973206E6F7420617661696C22
:10B1500061626C650A0000003000000046756E6395
:10B1600074696F6E5B25735D3A20696E74657272E7
:10B170007570742069732064697361626C65640A18
:10B180000000000046756E6374696F6E5B25735D29
:10B19000207368616C6C206E6F742062652075731B
:10B1A0006564206265666F726520736368656475A7
:10B1B0006C65722073746172740A000046756E6368
:10B1C00074696F6E5B25735D207368616C6C206EB3
:10B1D0006F74206265207573656420696E20495321
:10B1E000520A00006D7574657820213D2052545F2D
:10B1F0004E554C4C0000000028FB04001832002083
:10B200001C3200202DE9F74F82B0044617462CB9B6
:10B2100040F2FD125C495DA017F006F820461AF0D6
:10B22000FFFA022805D04FF4FF7257495B4816F029
:10B23000FBFF00BF5A48006818B12046584909680A
:10B24000884700BF00BFA08B002850D1039800287A
:10B250004DD018F003FE8046FBF7E8F8019017F098
:10B26000B5FA48B148494FA019F026FA40F2032236
:10B27000454957A016F0D8FFB8F1010F09D142494E
:10B2800054A019F019FA40F203223F4950A016F0D9
:10B29000CBFF00BFFBF7CAF882461CF07BF948B928
:10B2A000394956A019F008FA40F20322364948A05D
:10B2B00016F0BAFF00BFFBF7B9F8834619F0D4F9CE
:10B2C00048B131495BA019F0F7F940F203222E4949
:10B2D0003FA016F0A9FF5846FBF7ACF800BF504658
:10B2E000FBF7A8F800BF0198FBF7A4F800BF00BF68
:10B2F000FBF79CF88146A08B002806DDA08B401E42
:10B30000A0834846FBF796F833E0039838B94846DF
:10B31000FBF790F86FF0010005B0BDE8F08F1CF06E
:10B3200039F905466FF008002863627A3B462946E2
:10B3300004F11400FEF76CFC064626B14846FBF704
:10B3400079F83046E8E70398002809DD03AA0021D0
:10B3500005F158001CF0E2FB05F158001CF03CFD23
:10B360004846FBF767F81AF055FD286B08B1286BC3
:10B37000D2E700BF3948006818B12046374909684C
:10B38000884700BF0020C7E70BDE040073656D200F
:10B39000213D2052545F4E554C4C00009CFA040055
:10B3A0001832002046756E6374696F6E5B25735D9D
:10B3B0003A207363686564756C6572206973206EEA
:10B3C0006F7420617661696C61626C650A000000CF
:10B3D0003000000046756E6374696F6E5B25735DA7
:10B3E0003A20696E74657272757074206973206496
:10B3F000697361626C65640A0000000046756E63E3
:10B4000074696F6E5B25735D207368616C6C206E70
:10B410006F742062652075736564206265666F7263
:10B4200065207363686564756C65722073746172FE
:10B43000740A000046756E6374696F6E5B25735DF8
:10B44000207368616C6C206E6F7420626520757368
:10B45000656420696E204953520A00001C320020A6
:10B4600002460020704703460020704710B504468E
:10B47000FDF71CFA10BD70B505460C4621460020AC
:10B48000FDF740FA002070BD70B50446064800681C
:10B49000FEF7DEF9451E054850F83500A0F1140608
:10B4A0002560304670BD000024320020BC5B0020C7
:10B4B00070B5044624B96222134914A016F0B4FEF4
:10B4C000A06A0078232809D1A16AE069884205D9D9
:10B4D000D4E90A010844E16988420AD2214610A051
:10B4E00019F0EAF8FAF7A2FF054600BF002DFDD1DA
:10B4F00008E0A06A2030E169814203D821460FA00C
:10B5000019F0DAF870BD00002AE204007468726570
:10B51000616420213D2052545F4E554C4C00000088
:10B520007468726561643A257320737461636B207B
:10B530006F766572666C6F770A0000007761726ED5
:10B54000696E673A20257320737461636B20697399
:10B5500020636C6F736520746F20656E64206F6666
:10B5600020737461636B20616464726573732E0A67
:10B570000000000010B50948006868B900BF08A0C5
:10B5800019F09AF80A4819F097F80AA019F094F8F7
:10B5900000BF01200149086010BD00006830002094
:10B5A0001B5B33336D5B572F554152545D200000B8
:10B5B000B0F104001B5B306D0A0000002DE9F0477C
:10B5C00004460F46904604B12FB94FF4EB72404940
:10B5D00040A016F029FEFAF729FF8246A06DC0F3BD
:10B5E0008F2000282DD10026E56D2DB940F2DF1205
:10B5F000374943A016F018FE2868012813D001200F
:10B600002860206D006928B940F2E312304941A05A
:10B6100016F00AFE206D012342463946D0F810C0CC
:10B620002046E04701E06FF006065046FAF702FFB9
:10B6300016B94046BDE8F08730461BF091FA00206D
:10B64000F8E7E56D0026204618F05CF881462DB934
:10B6500040F2F1121E4939A016F0E6FDC84501DAA4
:10B66000464600E04E46E8888119A06DC0F38F2061
:10B67000814207D2EA88286881183246384619F094
:10B680003AF91CE0A06DC0F38F20EB88C21A28683D
:10B69000C118384619F02FF9EB8803EB060CA36D9F
:10B6A000C3F38F23ACEB0302A36DC3F38F233B449F
:10B6B000B5F806C0A3EB0C00296819F01CF9314657
:10B6C000204618F025F85046FAF7B4FE3046B1E7A8
:10B6D0004BD804002873657269616C20213D2052AB
:10B6E000545F4E554C4C29202626202864617461F5
:10B6F00020213D2052545F4E554C4C290000000043
:10B7000072785F646D6120213D2052545F4E554C2C
:10B710004C00000073657269616C2D3E6F70732D73
:10B720003E646D615F7472616E736D697420213D5A
:10B730002052545F4E554C4C0000000072785F66FA
:10B7400069666F20213D2052545F4E554C4C0000DD
:10B750002DE9F047044688461646256E4FF0FF3324
:10B7600032464146281D17F00DFB0746CFB9FAF7C0
:10B770005DFE8146286801280DD0012028604846DA
:10B78000FAF758FE206D022332464146D0F810C029
:10B790002046E04702E04846FAF74CFE3046BDE856
:10B7A000F08738461BF0DCF90020F8E770B5054655
:10B7B000EC6D2CB940F277120F4910A016F034FD51
:10B7C000A088E188884207D1A06808B9002070BD30
:10B7D000A86DC0F38F20FAE7A088E188884203DDD6
:10B7E000A088E188401AF2E7E088A188411AA86D94
:10B7F000C0F38F20401AEAE7F4D7040072785F663E
:10B8000069666F20213D2052545F4E554C4C00001C
:10B810002DE9F04706460F4615462EB94FF48D72B6
:10B820001E491FA016F000FDA846F46D2CB94FF478
:10B830008F721A491FA016F0F7FC28E0FAF7F6FD00
:10B840008246E088A188884205D1A06818B9504690
:10B85000FAF7F0FD1DE0E188206810F80190E0881B
:10B86000401CE080E188B06DC0F38F20814201DB95
:10B870000020E080A068012801D10020A06050468F
:10B88000FAF7D8FD87F800907F1C6D1E00BF002DD1
:10B89000D4D100BFA8EB0500BDE8F087D6D70400DF
:10B8A00073657269616C20213D2052545F4E554C86
:10B8B0004C00000072785F6669666F20213D20525F
:10B8C000545F4E554C4C00002DE9F04104460E46A5
:10B8D00015462CB94FF4A4721C491D4816F0A4FC5F
:10B8E000A846276E2FB94FF4A672184919A016F072
:10B8F0009BFC24E030780A2810D1207E00F0400024
:10B9000060B1206D0D21826820469047401C28B907
:10B910004FF0FF31384616F0E5FD10E004E04FF03F
:10B92000FF31384616F0DEFD3178206D8268204602
:10B930009047401C0028F2D0761C6D1E00BF002DE1
:10B94000D8D1A8EB0500BDE8F0810000E5D70400E0
:10B95000B4B90200747820213D2052545F4E554CFA
:10B960004C0000002DE9F04106460F46144626B96A
:10B97000E7220F490FA016F057FCA04611E0306DEA
:10B98000C168304688470546681C00B90BE03D7029
:10B990007F1C641E307E00F0400010B10A2D00D1E3
:10B9A00001E0002CEBD100BFA8EB0400BDE8F08162
:10B9B000B6D7040073657269616C20213D20525432
:10B9C0005F4E554C4C0000002DE9F04104460E46F8
:10B9D000154624B9FD220F490F4816F025FC2F46C5
:10B9E00012E030780A2808D1207E00F0400020B113
:10B9F000206D0D218268204690473178206D826845
:10BA000020469047761C6D1E002DEAD1781BBDE8BC
:10BA1000F0810000C6D70400B4B902004A68002AC9
:10BA200006D00A68531C0B6010704868401E4860BE
:10BA300070470A68531C0B601070704770B51BF09C
:10BA4000A9FD0446FAF7F2FC054620461AF0EEFA84
:10BA500004F158001CF0FEF8012084F83400204660
:10BA60001BF09EFB2846FAF7E5FC1AF0D3F970BDEF
:10BA700030B501460022002391F83640CA6B0DE034
:10BA8000A2F12403587F1D7F854201DD054600E0B9
:10BA90001D7F2846844200DD0446126801F13C0007
:10BAA0008242EDD1204630BD2DE9FC5F04468B4635
:10BAB00016461F46DDE90C9ADDE90E5804F1140024
:10BAC00018F05DFE26626762C4F82890C4F82CA0C6
:10BAD0002321D4E90A0219F0DCFAD4E90A3C6344D0
